:0300000002105D8E
:0C105D00787FE4F6D8FD7581210210A414
:10152800D3EF9400EE9400401600000075080B7588
:0F15380009BED509FDD508FAEF1F70E41E80E14A
:011547002281
:10161900D3EF9400EE9400400A000000EF1F70F031
:041629001E80ED2210
:1015BA0043BC807F0A7E0012152853DEFC43DE0CF2
:0A15CA0053BCDF53A8DF43DE2022EC
:10150700E4FDFC53BCF0EF444042BCE5BC30E5FBD6
:1015170053BCDF53BCBFAFBDEFADBEFCEDAE04FFA8
:0115270022A1
:10144C0075941AE4F59390FE1074E0F0E4F592753F
:10145C009170A37489F075960FE4F595A374F0F070
:10146C0075B202E4F5B1A374FCF075B480E4F5B385
:0E147C00A3747FF0E4F5CAF5C9A3741FF02233
:1014C1003D3D3D3D3D3D3D3D3D3D20636F646520DE
:1014D1007374617274203D3D3D3D3D3D3D3D3D3D5B
:0414E100200D0A00D0
:1013820043BA8012144C1216401215481215ED126F
:1013920015BA1216031215D412162D1213CA1216EA
:1013A20052D2AFE490010BF07BFF7A1479C11201A3
:1013B200097F057E0012152812159F7F0112166201
:0813C20012000E12156780F8FD
:1013CA0043BA8090FEB6E0F090FEEDE4F090FEEABB
:1013DA007470F0A3F090FEED7411F090FEF27404B4
:1013EA00F0A37451F090FEF0E4F0A37431F090FE93
:1013FA00B5E04450F090FEFD7480F090FEE0E044C9
:03140A0001F022CC
:10162D00438E805389F0758ACD758CD4C28DD28C42
:03163D00D2A9220D
:1016520053D1FDE4F5D575D4DC43D10843AF202244
:1015ED0075AC1053ACBF438E0475D7E875D6FF4369
:0615FD008E1043AF08222E
:1016030075841043844043D12075D3E875D2FF43DA
:06161300D18043AF10225C
:040BF90041010600B0
:1015D400E4900000F0900081F0900101F0F0A3F09D
:0915E400A3F0A3F0A3F0C28422DD
:03009300021174E3
:10117400C0E0C083C082C0D075D000C007E5843011
:10118400E12A5384FD900101E0601AA3E0FF04F01A
:1011940074012FF582E43400F583E0F585900101B4
:1011A400E014F08007900102E4F0C284E58430E0AA
:1011B400335384FE900000E07021900105E0D39445
:1011C400804002E4F0900105E02481F582E43400DB
:1011D400F583E585F0900105E004F0900103E4F067
:0F11E400A37405F0D007D0D0D082D083D0E032F2
:03000B0002140DCF
:10140D00C0E0C083C082C0D0900103E07002A3E0B1
:10141D006024900104E024FFF0900103E034FFF01C
:10142D00E07002A3E0700F900105E0D39400400638
:0F143D009000007401F0D0D0D082D083D0E03284
:03008B000214E577
:1014E500C0E0C083C082E5AC30E10853ACFD90019B
:1014F50006E4F0E5AC30E00353ACFED082D083D0F7
:02150500E032D2
:0B007C008FAD900106E070FA04F02246
:10158400D2917F027E00121619C2917F197E001239
:0B1594001528D2917F1E7E0002161960
:1011F300E490020FF090020EF03091FD7F287E0004
:1012030012161930911F2091FD90020FE0FF9002FA
:101213000EE0FEC374079EFEF87401088002C33318
:10122300D8FC4F801B90020FE0FF90020EE0FEC33C
:1012330074079EFEF87401088002C333D8FCF45F80
:1012430090020FF090020EE004F0E0C3940840A96E
:0512530090020FE0FF16
:011258002273
:1012590012158420915D3091FD2091FD1211F390BA
:10126900020AEFF01211F390020BEFF01211F39052
:10127900020CEFF01211F390020DEFF01211F3D2FC
:101289009190020BE0FD90020AE0F92DFDE433FC98
:1012990090020CE0FE7A002DFDEA3CFCA3E02DFD56
:1012A900EA3CFCEFB5050CEAB5040890010CEEF038
:0312B900A3E9F0B6
:0112BC00220F
:100BFD0060FC010E03D503FA04200446046D049530
:100C0D0004BE04E70510053A0565059005BB05E72B
:100C1D000613063F066C069906C606F30720074D18
:100C2D00077A07A707D40800082D0859088508B1C9
:100C3D0008DC09070931095B098409AD09D609FDED
:100C4D000A240A4B0A710A960ABB0ADE0B020B2410
:100C5D000B460B670B870BA70BC60BE40C020C1E88
:100C6D000C3A0C560C700C8A0CA40CBC0CD40CEC6D
:100C7D000D020D190D2E0D430D570D6B0D7E0D90A3
:100C8D000DA20DB40DC50DD50DE50DF50E040E120D
:100C9D000E200E2E0E3B0E480E550E610E6D0E786B
:100CAD000E830E8D0E970EA10EAB0EB40EBD0EC69D
:100CBD000ECF0ED70EDF0EE70EEF0EF60EFD0F0464
:100CCD000F0B0F110F170F1D0F230F290F2F0F359F
:100CDD000F3A0F3F0F440F490F4E0F530F580F5C34
:100CED000F600F650F690F6D0F710F740F780F7C0B
:0E10E90090020EEBF0A3EAF0A3E9F0A3EDF005
:1010F700E4900215F0A3F0900214F0900211E014AE
:10110700FF900214E0FEC39F505A90020EE0FBA32B
:10111700E0FAA3E0F975F002EEA4F58285F08312F8
:101127000873FF900212E0FCA3E0FDC39FEC95F06B
:10113700402AA3E02401FFE433FEEF25E0FFEE336E
:10114700FE8F828E83120873FFC3ED9FEC95F050DC
:101157000B900214E0FFA3E4F0A3EFF0900214E079
:0C11670004F08097900215E0FEA3E0FF6A
:011173002259
:0513210090020AEFF04C
:10132600E490020CF0A3F090020BF090020AE0FFAA
:1013360012150790020DE02FF090020CE03EF0909F
:10134600020BE004F0E0C3940A40E090020CE0FED9
:10135600A3E0FF7C007D0A12081E90020CEEF0A3AB
:10136600EFF07B017A01790E90020CE0FFA3E0908A
:0C1376000212CFF0A3EFF07D7E0210E920
:10148A00AC07ECB40116ED75F0B8A4FFC374509F15
:10149A00FE740495F090FEF9F0A3CEF0ECB40216B7
:1014AA00ED75F0B8A4FFC374509FFE740495F090D4
:0714BA00FEFBF0A3CEF022BF
:10164000C2C7C2A1C2A0D2A3D2A2E4900250F0A30A
:02165000F02286
:1015670090010BE0B401157F04121321900107EFDE
:0D157700F012125912159FE490010BF022A2
:10159F00900246E0B40111A3E0FF900107E0C39F62
:0B15AF005003D2A022C2A022C2A02242
:0A166200EFB40103D2A122C2A122BD
:10154800E4900252F0A3F0A37407F0A374D0F0E47F
:0F155800A3F0A3F0A3F0A3F0A3F0A3F0A3F0225D
:1009300030CB0A900252E054FCF04403F020CB107C
:10094000900256E0700A900252E054FCF04402F02B
:1009500020CB11900256E0B4010A900252E054FC00
:10096000F04401F030860A900252E054F3F0440C57
:10097000F0208610900257E0700A900252E054F383
:10098000F04408F0208611900257E0B4010A90026A
:1009900052E054F3F04404F030900A900252E054D4
:1009A000CFF04430F0209010900258E0700A90028E
:1009B00052E054CFF04420F0209011900258E0B45F
:1009C000010A900252E054CFF04410F030930A90A4
:1009D0000252E0543FF044C0F0209310900259E0DE
:1009E000700A900252E0543FF04480F0209311903E
:1009F0000259E0B4010A900252E0543FF04440F042
:100A000030C00A900253E054FCF04403F020C010C0
:100A100090025AE0700A900253E054FCF04402F055
:100A200020C01190025AE0B4010A900253E054FC35
:100A3000F04401F030B30A900253E054F3F0440C58
:100A4000F020B31090025BE0700A900253E054F380
:100A5000F04408F020B31190025BE0B4010A900268
:100A600053E054F3F04404F030C80A900253E054C9
:100A7000CFF04430F020C81090025CE0700A900281
:100A800053E054CFF04420F020C81190025CE0B451
:0D0A9000010A900253E054CFF04410F02210
:100CFD00420232000042023400004202360000423D
:100D0D000238000042023A000042023C000042025A
:100D1D003E000042024000004202420000420244F6
:020D2D000000C4
:03009B0002040359
:10040300C0E0C0F0C083C082C0D075D000C000C0BF
:0D04130001C002C003C004C005C006C00740
:1004200090010BE07026900233E004F07006900219
:1004300032E004F0900232E07004A3E06464700CD7
:1004400090010B04F0900232E4F0A3F020CB2E9048
:100450000235E004F07006900234E004F09002549B
:10046000E0FEA3E0FFC3900235E09F900234E09EDF
:100470004016E4F0A3F090025604F0800B90023492
:10048000E4F0A3F0900256F020862E900237E004AC
:10049000F07006900236E004F0900254E0FEA3E013
:1004A000FFC3900237E09F900236E09E4016E4F0D2
:1004B000A3F090025704F0800B900236E4F0A3F012
:1004C000900257F020902E900239E004F0700690D0
:1004D0000238E004F0900254E0FEA3E0FFC3900273
:1004E00039E09F900238E09E4016E4F0A3F09002BD
:1004F0005804F0800B900238E4F0A3F0900258F01A
:1005000020932E90023BE004F0700690023AE00443
:10051000F0900254E0FEA3E0FFC390023BE09F9006
:10052000023AE09E4016E4F0A3F090025904F080F5
:100530000B90023AE4F0A3F0900259F020C02E9004
:10054000023DE004F0700690023CE004F09002549A
:10055000E0FEA3E0FFC390023DE09F90023CE09EDE
:100560004016E4F0A3F090025A04F0800B90023C95
:10057000E4F0A3F090025AF020B32E90023FE00482
:10058000F0700690023EE004F0900254E0FEA3E01A
:10059000FFC390023FE09F90023EE09E4016E4F0D1
:1005A000A3F090025B04F0800B90023EE4F0A3F015
:1005B00090025BF020C82E900241E004F07006909B
:1005C0000240E004F0900254E0FEA3E0FFC390027A
:1005D00041E09F900240E09E4016E4F0A3F09002BC
:1005E0005C04F0800B900240E4F0A3F090025CF019
:1005F000900243E004F07006900242E004F09002A2
:1006000045E004F07006900244E004F0900248E0F7
:10061000FEA3E0FFD3900243E09F900242E09E5091
:100620000A900250E0FD7F0112148A90024AE0FE17
:10063000A3E0FF900248E0FCA3E0FD2FFFEC3EFEAC
:10064000900242E0FAA3E0FBC39FEA9E500DEB9DAF
:10065000EA9C4007E4FD7F0112148A90024AE0FE02
:10066000A3E0FF900249E02FFF900248E03EFEC366
:10067000900243E09F900242E09E4004E4F0A3F029
:1006800090024CE0FEA3E0FFD3900245E09F900271
:1006900044E09E500A900251E0FD7F0212148A90BD
:1006A000024EE0FEA3E0FF90024CE0FCA3E0FD2F31
:1006B000FFEC3EFE900244E0FAA3E0FBC39FEA9EFB
:1006C000500DEB9DEA9C4007E4FD7F0212148A90D6
:1006D000024EE0FEA3E0FF90024DE02FFF90024C9F
:1006E000E03EFEC3900245E09F900244E09E40043D
:0406F000E4F0A3F09F
:1006F400D007D006D005D004D003D002D001D0005A
:0B070400D0D0D082D083D0F0D0E03203
:10000E00900000E064017065F07B017A00798190C8
:10001E000105E024FEFD1212BDAD07AC06900105F0
:10002E00E0FB247FF582E43400F583E0FE74802B40
:10003E00F582E43400F583E0FBEBFFE4900105F07C
:10004E00EDB50729ECB50625900081E0B4EB1EA3B3
:10005E00E024FC600F24FE600E24F6600D240D706B
:0D006E000C020FC3020D30020E2C120A9D71
:01007B002262
:100FC3009002607403F0900085A3E025E090025F37
:100FD300F0900083E0FEA3E0FDEDFF900262EEF0EF
:100FE300A3EFF090000174EBF0A37403F090025FA1
:100FF300E0900003F090025FE0F9C313FD900263F9
:10100300E02DFD900262E03400FCC3EF9DEE9C50A6
:1010130040E490025EF090025DF090025DE0FD908E
:101023000260E0FC04F074012CF582E43400F583E3
:10103300EDF090025EE0FD900260E0FC04F07401CC
:101043002CF582E43400F583EDF00FBF00010E8030
:0A105300A4E92403FD7F03020EFC54
:100D30009002607403F0900085A3E025E090025FCC
:100D4000F0900083E0FEA3E0FDEDFF900262EEF084
:100D5000A3EFF090000174EBF0A37404F090025F35
:100D6000E0900003F090020AEEF0A3EFF090025F33
:100D7000E0C313FF900263E02FFF900262E03400B3
:100D8000FE90020AE0FCA3E0FDC39FEC9E4003023C
:100D90000E20E490025EF090025DF0EC7041ED14E4
:100DA000601A14602014602A2403703312093090F2
:100DB0000253E090025DF0900252801EE490025DCA
:100DC000F0A3F0801A90010DE090025DF090010C0C
:100DD0008008E490025DF0900107E090025EF090E0
:100DE000025DE0FF900260E0FE04F074012EF582E7
:100DF000E43400F583EFF090025EE0FF900260E0E3
:100E0000FE04F074012EF582E43400F583EFF090D7
:100E1000020BE004F0700690020AE004F0020D6D8F
:0C0E200090025FE02403FD7F04020EFC42
:100E2C00900084E024FD601214602214602A146087
:100E3C0065147003020EE3020EF5900085E090023B
:100E4C0047F0900086E0900246F0020EF590008686
:100E5C00E0FF121662020EF5900085E0FD5401C40D
:100E6C003354E0FFA3E0FC131313541F4F75F064CD
:100E7C00A4FF900248E5F0F0A3EFF0EDC31375F07A
:100E8C0064A4FFA3E5F0F0A3EFF0EC54079002503C
:100E9C00F0FD7F01803C900085E0FD5401C433548B
:100EAC00E0FFA3E0FC131313541F4F75F064A4FF71
:100EBC0090024CE5F0F0A3EFF0EDC31375F064A4D1
:100ECC00FFA3E5F0F0A3EFF0EC5407900251F0FD16
:100EDC007F0212148A8012900086E075F064A4FFE1
:100EEC00900254E5F0F0A3EFF07D087F06020EFCB3
:100A9D009002617407F0900087E090025FF0900083
:100AAD0083E0FEA3E0FDEDFF900262EEF0A3EFF018
:100ABD0090020AEEF0A3EFF090025FE0C313FF90F7
:100ACD000263E02FFF900262E03400FE90020AE024
:100ADD00FCA3E0FDC39FEC9E4003020BF29002616C
:100AED00E02481F582E43400F583E090025DF0901E
:100AFD000261E02482F582E43400F583E090025E29
:100B0D00F0EC6003020BDAED14602614602E146015
:100B1D0069147003020BC824046003020BDA9002FF
:100B2D005DE0900247F090025EE0900246F0020B0D
:100B3D00DA90025EE0FF121662020BDA90025DE0BF
:100B4D00FD5401C43354E0FFA3E0FC131313541FF1
:100B5D004F75F064A4FF900248E5F0F0A3EFF0EDBF
:100B6D00C31375F064A4FFA3E5F0F0A3EFF0EC540C
:100B7D0007900250F0FD7F01803C90025DE0FD5436
:100B8D0001C43354E0FFA3E0FC131313541F4F753E
:100B9D00F064A4FF90024CE5F0F0A3EFF0EDC31369
:100BAD0075F064A4FFA3E5F0F0A3EFF0EC5407900B
:100BBD000251F0FD7F0212148A801290025EE075E0
:100BCD00F064A4FF900254E5F0F0A3EFF090026101
:100BDD00E02402F090020BE004F0700690020AE0AF
:0C0BED0004F0020AC57D087F10020EFC17
:050EFC0090020CEDF076
:100F0100EF24FC600F24FE604F24F66064240D6022
:100F110003020FB07B017A00790190020CE0FD120F
:100F210012BD90020DEEF0A3EFF090020DE0FEA3D2
:100F3100E0FD90020CE0FC2402F582E43400F5832C
:100F4100EDF0EEFF74012CF582E43400F583EFF04F
:100F510090020CE02402805378017C007D017B012A
:100F61007A0079817E007F081207DF90020CE08011
:100F71003A78017C007D017B017A0079817E007FD6
:100F8100061207DF7B017A0079017D061212BD90FE
:100F9100020DEEF0A3EFF090020DE0FEA3E0900051
:100FA10008F0EE900007F090020CE0900101F0D201
:100FB100847F027E001215284384027F017E000295
:020FC1001528F1
:0512BD0090020FEDF0AE
:1012C20074FFA3F0A3F0120805FF900210E0F0A350
:1012D200E06FF0E4FD900210E0FEA3E0FF30E019C1
:1012E200EEC313FEEF13FFEE64A0FEEF6401FF9066
:1012F2000210EEF0A3EFF0800B900210E0C313F0A7
:10130200A3E013F00DEDB408CC740129F9E43AFA24
:0E13120090020FE014F070AEA3E0FEA3E0FF27
:0113200022AA
:10106900021382E493A3F8E493A34003F68001F208
:1010790008DFF48029E493A3F85407240CC8C33388
:10108900C4540F4420C8834004F456800146F6DF57
:10109900E4800B0102040810204080900BF9E47EE3
:1010A900019360BCA3FF543F30E509541FFEE4934C
:1010B900A360010ECF54C025E060A840B8E493A313
:1010C900FAE493A3F8E493A3C8C582C8CAC583CA3E
:1010D900F0A3C8C582C8CAC583CADFE9DEE780BEF6
:010D2F0000C3
:10070F00E709F608DFFA8046E709F208DFFA803ECC
:10071F0088828C83E709F0A3DFFA8032E309F608B9
:10072F00DFFA8078E309F208DFFA807088828C8321
:10073F00E309F0A3DFFA806489828A83E0A3F608D5
:10074F00DFFA805889828A83E0A3F208DFFA804CAF
:10075F0080D280FA80C680D4806980F28033801086
:10076F0080A680EA809A80A880DA80E280CA8033EF
:10077F0089828A83ECFAE493A3C8C582C8CCC58367
:10078F00CCF0A3C8C582C8CCC583CCDFE9DEE78037
:10079F000D89828A83E493A3F608DFF9ECFAA9F0B6
:1007AF00EDFB2289828A83ECFAE0A3C8C582C8CC0C
:1007BF00C583CCF0A3C8C582C8CCC583CCDFEADE25
:1007CF00E880DB89828A83E493A3F208DFF980CC87
:1007DF0088F0EF60010E4E60C388F0ED2402B40480
:1007EF000050B9F582EB2402B4040050AF23234527
:0607FF00822390075F73E6
:10080500BB010689828A83E0225002E722BBFE02F1
:09081500E32289828A83E4932224
:10081E00BC000BBE0029EF8DF084FFADF022E4CCBE
:10082E00F875F008EF2FFFEE33FEEC33FCEE9DEC87
:10083E00984005FCEE9DFE0FD5F0E9E4CEFD22EDCD
:10084E00F8F5F0EE8420D21CFEADF075F008EF2F17
:10085E00FFED33FD4007985006D5F0F222C398FD08
:05086E000FD5F0EA22A5
:10087300BB0110E58229F582E5833AF583E0F5F0C3
:10088300A3E0225009E92582F886F008E622BBFEA0
:100893000AE92582F8E2F5F008E222E5832AF583E6
:0808A300E993F5F0A3E99322AB
:10009E00E508240DF582E43402F583E0050822908C
:1000AE00020A30070390020DE475F0011208EA020D
:1000BE0008052000E97F2ED2008018EF540F2490FF
:1000CE00D43440D4FF30040BEF24BFB41A005003D5
:1000DE002461FFE50960021509050CE50C700205A7
:1000EE000B30070E90020AE475F0011208EAEF02D7
:1000FE0008D802007C7403D2078003E4C207F50817
:10010E0090020A120901E4F509F50BF50CE50960F8
:10011E00077F201200E180F5750AFFC201C200C2FE
:10012E0002C203C205C206C2081200ADFF700D3036
:10013E0007057F001200F2AF0CAE0B22B4255FC292
:10014E00D5C2041200ADFF24D0B40A00501A75F0C7
:10015E000A780930D50508B6FF0106C6A426F62092
:10016E00D5047002D20380D924CFB41A00EF500404
:10017E00C2E5D2040202F3D20180C6D20080C0D200
:10018E000280BCD2D580BAD20580B47F201200E1A5
:10019E002002077401B5090040F112009EFF120003
:1001AE00E102011BD208D206809512009EFB1200BE
:1001BE009EFA12009EF94A4B700679C47A037BFFB1
:1001CE0020022EE509602A7E008E827583001208B9
:1001DE00AB60060EEE650A70F0C2D5EBC0E0EAC069
:1001EE00E0E9C0E0EE12033AD0E0F9D0E0FAD0E058
:1001FE00FB120805FF60AAEBC0E0EAC0E0E9C0E030
:10020E001200E1D0E02401F9D0E03400FAD0E0FB96
:10021E00E50A0460DCD50AD980877BFF7A0379363C
:10022E00D202809C791080027908C206C20880082A
:10023E00D2D5790A8004790AC2D5E50A047002F58E
:10024E000AE4FAFDFEFF12009EFC7B082001131249
:10025E00009EFD7B1030000A12009EFE12009EFFD3
:10026E007B20EC3382D592D55013C3E43000069F29
:10027E00FFE49EFEE42001039DFDE49CFCE4CBF82C
:10028E00C201EC700CCFCECDCCE824F8F870F38020
:10029E0017C3EF33FFEE33FEED33FDEC33FCEB33E0
:1002AE00FB994002FB0FD8E9EB300105F8D0E0C412
:1002BE0048B201C0E00AEC4D4E4F78207B0070C270
:1002CE00EAB50A0040BCC0E012033CD0F0D0E020FA
:1002DE000104C4C0E0C4B201C0F01200CAD0F0D50F
:1002EE00F0EB02011B12090A01B8530232580189C0
:1002FE004C01854202364F023E44023E49019E4366
:08030E000244550228460228B2
:100316004502284703E450018D2D01912E01B42B8F
:1003260001952301B22003CD2A014D48000001ACFE
:100336003F3F3F00790AA2D5200314300509B910C2
:10034600020404B9080104A2D520060250010420C3
:1003560002689202B509005034C0E07F20300319CC
:100366007F30A20272067205500F120393C202C2B8
:1003760006C205C2087F30800F300503E9C0E012CF
:1003860000E1300503D0E0F9D0E0B509CC3005171F
:100396007F30B9100C1200E17F583004077F788057
:1003A60003B908031200E13002057F2D0200E17F48
:1003B600202008F87F2B2006F322920280CF286E99
:1003C600756C6C2900D20112009E3001F8C20178CA
:1003D6000930D50108F602014D2D50434958120047
:1003E6009E2403B405004001E49003DF931200D27B
:0D03F600743A1200D2D203750904020232DB
:1008AB00BB010CE58229F582E5833AF583E0225002
:1008BB0006E92582F8E622BBFE06E92582F8E2224C
:0D08CB00E58229F582E5833AF583E4932266
:1008D800BB010689828A83F0225002F722BBFE01FF
:0208E800F322F9
:1008EA00F8E0FBA3A3E0F925F0F0E5821582700297
:0708FA001583E0FA38F0223B
:09090100EBF0A3EAF0A3E9F022F7
:10090A00D083D082F8E4937012740193700DA3A37C
:10091A0093F8740193F5828883E473740293686090
:06092A00EFA3A3A380DF90
:00000001FF
