:030000000209658D
:0C096500787FE4F6D8FD7581210209AC12
:100F8E00D3EF9400EE9400401600000075080B7528
:0F0F9E0009BED509FDD508FAEF1F70E41E80E1EA
:010FAD002221
:10104200D3EF9400EE9400400A000000EF1F70F00E
:041052001E80ED22ED
:100FC90043BC807F0A7E00120F8E53DEFC43DE0C89
:0A0FD90053BCDF53A8DF43DE2022E3
:100F6D00E4FDFC53BCF0EF444042BCE5BC30E5FB76
:100F7D0053BCDF53BCBFAFBDEFADBEFCEDAE04FF48
:010F8D002241
:100E870075941AE4F59390FE1074E0F0E4F592750A
:100E97009170A37489F075960FE4F595A374F0F03B
:100EA70075B202E4F5B1A374FCF075B480E4F5B350
:0E0EB700A3747FF0E4F5CAF5C9A3741FF022FE
:100F27003D3D3D3D3D3D3D3D3D3D20636F6465207D
:100F37007374617274203D3D3D3D3D3D3D3D3D3DFA
:040F4700200D0A006F
:100D7D0043BA80120E87121084121016120FC91268
:100D8D00102C120FFD121056120DC4121069D2AF95
:100D9D00E490010BF07BFF7A0F79271201097F0593
:100DAD007E00120F8E7F0112108F7F01121099128B
:070DBD000B80120FE380F828
:100DC40043BA8090FEB6E0F090FEEDE4F090FEEAC7
:100DD4007470F0A3F090FEED7411F090FEF27404C0
:100DE400F0A37451F090FEF0E4F0A37431F090FE9F
:100DF400B5E04450F090FEFD7480F090FEE0E044D5
:030E040001F022D8
:10105600438E805389F0758ACD758CD4C28DD28C1F
:03106600D2A922EA
:1010690053D1FDE4F5D575D4DC43D10843AF202233
:1010160075AC1053ACBF438E0475D7E875D6FF4345
:061026008E1043AF08220A
:10102C0075841043844043D12075D3E875D2FF43B7
:06103C00D18043AF102239
:04062400410106008A
:100FFD00E4900000F0900081F0900101F0F0A3F07A
:09100D00A3F0A3F0A3F0C28422B9
:03009300020B015C
:100B0100C0E0C083C082C0D075D000C007E584308A
:100B1100E12A5384FD900101E0601AA3E0FF04F093
:100B210074012FF582E43400F583E0F5859001012D
:100B3100E014F08007900102E4F0C284E58430E023
:100B4100335384FE900000E07021900105E0D394BE
:100B5100804002E4F0900105E02481F582E4340054
:100B6100F583E585F0900105E004F0900103E4F0E0
:0F0B7100A37405F0D007D0D0D082D083D0E0326B
:03000B00020E489A
:100E4800C0E0C083C082C0D0900103E07002A3E07C
:100E58006024900104E024FFF0900103E034FFF0E7
:100E6800E07002A3E0700F900105E0D39400400603
:0F0E78009000007401F0D0D0D082D083D0E0324F
:03008B00020F4B16
:100F4B00C0E0C083C082E5AC30E10853ACFD90013A
:100F5B0006E4F0E5AC30E00353ACFED082D083D096
:020F6B00E03272
:0B1079008FAD900106E070FA04F02239
:100FAE00D2917F027E00121042C2917F197E0012F2
:0B0FBE000F8ED2917F1E7E00021042B9
:100BEE00E490020FF090020EF03091FD7F287E000F
:100BFE0012104230911F2091FD90020FE0FF9002E3
:100C0E000EE0FEC374079EFEF87401088002C33323
:100C1E00D8FC4F801B90020FE0FF90020EE0FEC347
:100C2E0074079EFEF87401088002C333D8FCF45F8B
:100C3E0090020FF090020EE004F0E0C3940840A979
:050C4E0090020FE0FF21
:010C5300227E
:100C5400120FAE20915D3091FD2091FD120BEE90AC
:100C6400020AEFF0120BEE90020BEFF0120BEE9073
:100C7400020CEFF0120BEE90020DEFF0120BEED21D
:100C84009190020BE0FD90020AE0F92DFDE433FCA3
:100C940090020CE0FE7A002DFDEA3CFCA3E02DFD61
:100CA400EA3CFCEFB5050CEAB5040890010CEEF043
:030CB400A3E9F0C1
:010CB700221A
:1006280060FC010E03D503FA04200446046D04950A
:1006380004BE04E70510053A0565059005BB05E706
:100648000613063F066C069906C606F30720074DF3
:10065800077A07A707D40800082D0859088508B1A4
:1006680008DC09070931095B098409AD09D609FDC8
:100678000A240A4B0A710A960ABB0ADE0B020B24EB
:100688000B460B670B870BA70BC60BE40C020C1E63
:100698000C3A0C560C700C8A0CA40CBC0CD40CEC48
:1006A8000D020D190D2E0D430D570D6B0D7E0D907E
:1006B8000DA20DB40DC50DD50DE50DF50E040E12E8
:1006C8000E200E2E0E3B0E480E550E610E6D0E7846
:1006D8000E830E8D0E970EA10EAB0EB40EBD0EC678
:1006E8000ECF0ED70EDF0EE70EEF0EF60EFD0F043F
:1006F8000F0B0F110F170F1D0F230F290F2F0F357A
:100708000F3A0F3F0F440F490F4E0F530F580F5C0E
:100718000F600F650F690F6D0F710F740F780F7CE5
:0E09F10090020EEBF0A3EAF0A3E9F0A3EDF004
:1009FF00E4900215F0A3F0900214F0900211E014AD
:100A0F00FF900214E0FEC39F505A90020EE0FBA32A
:100A1F00E0FAA3E0F975F002EEA4F58285F08312F7
:100A2F000567FF900212E0FCA3E0FDC39FEC95F079
:100A3F00402AA3E02401FFE433FEEF25E0FFEE336D
:100A4F00FE8F828E83120567FFC3ED9FEC95F050EA
:100A5F000B900214E0FFA3E4F0A3EFF0900214E078
:0C0A6F0004F08097900215E0FEA3E0FF69
:010A7B002258
:050D1C0090020AEFF057
:100D2100E490020CF0A3F090020BF090020AE0FFB5
:100D3100120F6D90020DE02FF090020CE03EF0904A
:100D4100020BE004F0E0C3940A40E090020CE0FEE4
:100D5100A3E0FF7C007D0A12051290020CEEF0A3C5
:100D6100EFF07B017A01790E90020CE0FFA3E09095
:0C0D71000212CFF0A3EFF07D7E0209F12A
:100EFE00AC07ECB4010FED75F0B8A4FF90FEF9E568
:100F0E00F0F0A3EFF0ECB4020FED75F0B8A4FF9083
:090F1E00FEFBE5F0F0A3EFF02268
:0B108400C2C7C2A1C2A0D2A3D2A22208
:100FE30090010BE0B401127F04120D1C900107EF76
:0A0FF300F0120C54E490010BF02200
:0A108F00EFB40103D2A022C2A02298
:0A109900EFB40103D2A122C2A1228C
:05072800420246000042
:03009B00020EC58D
:060EC500C0E0C083C08202
:100ECB0090010BE07026900247E004F07006900250
:100EDB0046E004F0900246E07004A3E06464700CFA
:0C0EEB0090010B04F0900246E4F0A3F02C
:070EF700D082D083D0E0326D
:08072D004102450041024400B5
:100B8000900000E064017065F07B017A007981904B
:100B90000105E024FEFD120CB8AD07AC069001057E
:100BA000E0FB247FF582E43400F583E0FE74802BC3
:100BB000F582E43400F583E0FBEBFFE4900105F0FF
:100BC000EDB50729ECB50625900081E0B4EB1EA336
:100BD000E024FC600F24FE600E24F6600D240D70EE
:0D0BE0000C0208CB020736020E0712000EB1
:010BED0022E5
:1008CB009002407403F0900085A3E025E090023F76
:1008DB00F0900083E0FEA3E0FDEDFF900242EEF00E
:1008EB00A3EFF090000174EBF0A37403F090023FC0
:1008FB00E0900003F090023FE0F9C313FD90024338
:10090B00E02DFD900242E03400FCC3EF9DEE9C50C5
:10091B0040E490023EF090023DF090023DE0FD90ED
:10092B000240E0FC04F074012CF582E43400F58302
:10093B00EDF090023EE0FD900240E0FC04F074010B
:10094B002CF582E43400F583EDF00FBF00010E802F
:0A095B00A4E92403FD7F0302080451
:100736009002407403F0900085A3E025E090023F0C
:10074600F0900083E0FEA3E0FDEDFF900242EEF0A4
:10075600A3EFF090000174EBF0A37404F090023F55
:10076600E0900003F090020AEEF0A3EFF090023F53
:10077600E0C313FF900243E02FFF900242E03400F3
:10078600FE90020AE0FCA3E0FDC39FEC9E5063E4EA
:1007960090023EF090023DF0ED7016EC7013120AD6
:1007A6007C900244E090023DF0900245E090023ECB
:1007B600F090023DE0FF900240E0FE04F074012E4E
:1007C600F582E43400F583EFF090023EE0FF9002FC
:1007D60040E0FE04F074012EF582E43400F583EF68
:1007E600F090020BE004F0708490020AE004F0023C
:0E07F600077390023FE02403FD7F0402080415
:100E0700900084E024FD600B1460121460191460D4
:100E17001F8027900086E0FF12108F801D900086AC
:100E2700E0FF1210998013900086E0FD7F01800794
:100E3700900086E0FD7F02120EFE7D087F06020805
:010E470004A6
:10000E009002417407F0900087E090023FF090005C
:10001E0083E0FEA3E0FDEDFF900242EEF0A3EFF0D1
:10002E0090023FE0C313FD900243E02DFD9002428B
:10003E00E03400FCC3EF9DEE9C5032900241E02470
:10004E0081F582E43400F583E090023DF0900241A8
:10005E00E02482F582E43400F583E090023EF090D5
:10006E000241E02402F00FBF00010E80B37D087F35
:04007E001002080460
:0508040090020CEDF074
:10080900EF24FC600F24FE604F24F66064240D6021
:10081900030208B87B017A00790190020CE0FD120D
:100829000CB890020DEEF0A3EFF090020DE0FEA3DC
:10083900E0FD90020CE0FC2402F582E43400F5832B
:10084900EDF0EEFF74012CF582E43400F583EFF04E
:1008590090020CE02402805378017C007D017B0129
:100869007A0079817E007F081204D390020CE0801F
:100879003A78017C007D017B017A0079817E007FD5
:10088900061204D37B017A0079017D06120CB89017
:10089900020DEEF0A3EFF090020DE0FEA3E0900050
:1008A90008F0EE900007F090020CE0900101F0D200
:1008B900847F027E00120F8E4384027F017E000234
:0208C9000F8E90
:050CB80090020FEDF0B9
:100CBD0074FFA3F0A3F01204F9FF900210E0F0A36B
:100CCD00E06FF0E4FD900210E0FEA3E0FF30E019CC
:100CDD00EEC313FEEF13FFEE64A0FEEF6401FF9071
:100CED000210EEF0A3EFF0800B900210E0C313F0B2
:100CFD00A3E013F00DEDB408CC740129F9E43AFA30
:0E0D0D0090020FE014F070AEA3E0FEA3E0FF32
:010D1B0022B5
:100A7C00900245E054FC20CB06F04402F08004F0D8
:100A8C004403F0900245E054F3208606F04408F04D
:100A9C008004F0440CF0900245E054CF209006F016
:100AAC004420F08004F04430F0900245E0543F20A4
:100ABC009306F04480F08004F044C0F0900244E0CF
:100ACC0054FC20CC06F04402F08004F04403F09077
:100ADC000244E054F320B206F04408F08004F044E1
:100AEC000CF0900244E054CF20B405F04420F022E6
:050AFC00F04430F0227F
:10097100020D7DE493A3F8E493A34003F68001F212
:1009810008DFF48029E493A3F85407240CC8C33387
:10099100C4540F4420C8834004F456800146F6DF56
:1009A100E4800B0102040810204080900624E47EBC
:1009B100019360BCA3FF543F30E509541FFEE4934B
:1009C100A360010ECF54C025E060A840B8E493A312
:1009D100FAE493A3F8E493A3C8C582C8CAC583CA3D
:1009E100F0A3C8C582C8CAC583CADFE9DEE780BEF5
:0107350000C3
:10040300E709F608DFFA8046E709F208DFFA803EDB
:1004130088828C83E709F0A3DFFA8032E309F608C8
:10042300DFFA8078E309F208DFFA807088828C8330
:10043300E309F0A3DFFA806489828A83E0A3F608E4
:10044300DFFA805889828A83E0A3F208DFFA804CBE
:1004530080D280FA80C680D4806980F28033801095
:1004630080A680EA809A80A880DA80E280CA8033FE
:1004730089828A83ECFAE493A3C8C582C8CCC58376
:10048300CCF0A3C8C582C8CCC583CCDFE9DEE78046
:100493000D89828A83E493A3F608DFF9ECFAA9F0C5
:1004A300EDFB2289828A83ECFAE0A3C8C582C8CC1B
:1004B300C583CCF0A3C8C582C8CCC583CCDFEADE34
:1004C300E880DB89828A83E493A3F208DFF980CC96
:1004D30088F0EF60010E4E60C388F0ED2402B4048F
:1004E3000050B9F582EB2402B4040050AF23234536
:0604F30082239004537304
:1004F900BB010689828A83E0225002E722BBFE0201
:09050900E32289828A83E4932233
:10051200BC000BBE0029EF8DF084FFADF022E4CCCD
:10052200F875F008EF2FFFEE33FEEC33FCEE9DEC96
:10053200984005FCEE9DFE0FD5F0E9E4CEFD22EDDC
:10054200F8F5F0EE8420D21CFEADF075F008EF2F26
:10055200FFED33FD4007985006D5F0F222C398FD17
:050562000FD5F0EA22B4
:10056700BB0110E58229F582E5833AF583E0F5F0D2
:10057700A3E0225009E92582F886F008E622BBFEAF
:100587000AE92582F8E2F5F008E222E5832AF583F5
:08059700E993F5F0A3E99322BA
:10009E00E508240DF582E43402F583E0050822908C
:1000AE00020A30070390020DE475F0011205DE021C
:1000BE0004F92000E97F2ED2008018EF540F24900F
:1000CE00D43440D4FF30040BEF24BFB41A005003D5
:1000DE002461FFE50960021509050CE50C700205A7
:1000EE000B30070E90020AE475F0011205DEEF02E6
:1000FE0005CC0210797403D2078003E4C207F50819
:10010E0090020A1205F5E4F509F50BF50CE5096008
:10011E00077F201200E180F5750AFFC201C200C2FE
:10012E0002C203C205C206C2081200ADFF700D3036
:10013E0007057F001200F2AF0CAE0B22B4255FC292
:10014E00D5C2041200ADFF24D0B40A00501A75F0C7
:10015E000A780930D50508B6FF0106C6A426F62092
:10016E00D5047002D20380D924CFB41A00EF500404
:10017E00C2E5D2040202F3D20180C6D20080C0D200
:10018E000280BCD2D580BAD20580B47F201200E1A5
:10019E002002077401B5090040F112009EFF120003
:1001AE00E102011BD208D206809512009EFB1200BE
:1001BE009EFA12009EF94A4B700679C47A037BFFB1
:1001CE0020022EE509602A7E008E827583001205BC
:1001DE009F60060EEE650A70F0C2D5EBC0E0EAC075
:1001EE00E0E9C0E0EE12033AD0E0F9D0E0FAD0E058
:1001FE00FB1204F9FF60AAEBC0E0EAC0E0E9C0E040
:10020E001200E1D0E02401F9D0E03400FAD0E0FB96
:10021E00E50A0460DCD50AD980877BFF7A0379363C
:10022E00D202809C791080027908C206C20880082A
:10023E00D2D5790A8004790AC2D5E50A047002F58E
:10024E000AE4FAFDFEFF12009EFC7B082001131249
:10025E00009EFD7B1030000A12009EFE12009EFFD3
:10026E007B20EC3382D592D55013C3E43000069F29
:10027E00FFE49EFEE42001039DFDE49CFCE4CBF82C
:10028E00C201EC700CCFCECDCCE824F8F870F38020
:10029E0017C3EF33FFEE33FEED33FDEC33FCEB33E0
:1002AE00FB994002FB0FD8E9EB300105F8D0E0C412
:1002BE0048B201C0E00AEC4D4E4F78207B0070C270
:1002CE00EAB50A0040BCC0E012033CD0F0D0E020FA
:1002DE000104C4C0E0C4B201C0F01200CAD0F0D50F
:1002EE00F0EB02011B1205FE01B8530232580189D0
:1002FE004C01854202364F023E44023E49019E4366
:08030E000244550228460228B2
:100316004502284703E450018D2D01912E01B42B8F
:1003260001952301B22003CD2A014D48000001ACFE
:100336003F3F3F00790AA2D5200314300509B910C2
:10034600020404B9080104A2D520060250010420C3
:1003560002689202B509005034C0E07F20300319CC
:100366007F30A20272067205500F120393C202C2B8
:1003760006C205C2087F30800F300503E9C0E012CF
:1003860000E1300503D0E0F9D0E0B509CC3005171F
:100396007F30B9100C1200E17F583004077F788057
:1003A60003B908031200E13002057F2D0200E17F48
:1003B600202008F87F2B2006F322920280CF286E99
:1003C600756C6C2900D20112009E3001F8C20178CA
:1003D6000930D50108F602014D2D50434958120047
:1003E6009E2403B405004001E49003DF931200D27B
:0D03F600743A1200D2D203750904020232DB
:10059F00BB010CE58229F582E5833AF583E0225011
:1005AF0006E92582F8E622BBFE06E92582F8E2225B
:0D05BF00E58229F582E5833AF583E4932275
:1005CC00BB010689828A83F0225002F722BBFE010E
:0205DC00F32208
:1005DE00F8E0FBA3A3E0F925F0F0E58215827002A6
:0705EE001583E0FA38F0224A
:0905F500EBF0A3EAF0A3E9F02207
:1005FE00D083D082F8E4937012740193700DA3A38C
:10060E0093F8740193F5828883E47374029368609F
:06061E00EFA3A3A380DF9F
:00000001FF
