:10122200D3EF9400EE9400401600000075080B7591
:0F12320009BED509FDD508FAEF1F70E41E80E153
:01124100228A
:10000E00D3EF9400EE9400400A000000EF1F70F052
:04001E001E80ED2231
:10129F0043BC807F0A7E0012122253DEFC43DE0C19
:0A12AF0053BCDF53A8DF43DE20220A
:1011E000E4FDFC53BCF0EF444042BCE5BC30E5FB01
:1011F00053BCDF53BCBFAFBDEFADBEFCEDAE04FFD3
:0112000022CB
:0D134200E4F5C7F5C5F5C675C380F5C422F6
:1012810075C78075F50C75C5038FC4EEF5C375C6BA
:0E1291005A75C6A57F0A7E0012122202134271
:1011BE0075C78075F50C75C5028FC4EEF5C3AF0506
:1011CE008FC275C65A75C6A57F0A7E0012122202FC
:0211DE001342BA
:1012420075C78075F50C75C5018FC4EEF5C375C6FB
:101252005A75C6A57F0A7E00121222AFC20213423D
:10126200759418E4F593F5927591F875960EF595C7
:0F12720075B2C2F5B175B48EF5B3F5CAF5C922E0
:1010120043BA801212621212B91212D212129F1223
:1010220012E91212011212FF121154121312D2AF4C
:101032001210C4900108E0700F120681120E097F8F
:101042000A7E0012122280EBE4900213F07F14FE5B
:10105200121222120E09120E77121363900107E088
:0D106200B401F012110CE4900107F080E6DB
:1011540043BA8090FEB6E0F090FEEDE4F090FEEA33
:101164007470F090FEED7401F090FEF27404F0A33C
:101174007451F090FEF0E4F0A37431F090FEB5E009
:101184004410F090FEFD7480F090FEE0E04401F025
:011194002238
:1012FF00438E805389F0758ACD758CD4C28DD28C74
:03130F00D2A9223E
:1013120053D1FDE4F5D575D4DC43D10843AF202287
:1012B90053A23F759850438E01438E0475D7E87544
:0912C900D6FF438E1075A8102217
:1012E90075841043844043D12075D3E875D2FF43F8
:0612F900D18043AF10227A
:10120100E4900000F0900081F0900101F0F0A3F073
:10121100A3F0A3F0A3F0C28490010704F0E4A3F0CB
:0112210022AA
:1012D200E4900109F090018AF090020AF0F0A3F084
:0712E200A3F0A3F0A3F0222A
:03009300020D1348
:100D1300C0E0C083C082C0D075D000C007E5843076
:100D2300E12A5384FD900101E0601AA3E0FF04F07F
:100D330074012FF582E43400F583E0F58590010119
:100D4300E014F08007900102E4F0C284E58430E00F
:100D5300335384FE900000E07021900105E0D394AA
:100D6300804002E4F0900105E02481F582E4340040
:100D7300F583E585F0900105E004F0900103E4F0CC
:0F0D8300A37405F0D007D0D0D082D083D0E03257
:03002300020D9239
:100D9200C0E0C083C082C0D075D000C007309927A0
:100DA200C29990020AE0601AA3E0FF04F0740A2FCD
:100DB200F582E43401F583E0F59990020AE014F03B
:100DC200800590020BE4F0309832C298900109E05D
:100DD200702190020EE0D394804002E4F090020E63
:100DE200E0248AF582E43401F583E599F090020E5D
:100DF200E004F090020CE4F0A37405F0D007D0D028
:070E0200D082D083D0E03262
:03000B00020026CA
:10002600C0E0C083C082C0D0900103E07002A3E0AC
:100036006024900104E024FFF0900103E034FFF017
:10004600E07002A3E0700F900105E0D39400400633
:100056009000007401F090020CE07002A3E06024AE
:1000660090020DE024FFF090020CE034FFF0E07007
:1000760002A3E0700F90020EE0D3940040069001B8
:0D008600097401F0D0D0D082D083D0E032D8
:1010C4007F0F7E00121242EFF4703A90032F04F067
:1010D400A3743CF0A37401F0A37403F0A37401F0AF
:1010E400A3743CF0A37401F0A3F0A3740AF0A374F6
:1010F40014F0A37402F0A3740FF0A37419F0A37492
:0811040032F012080C0208C2CF
:10080C00E4FFFE12128190032FE0FDE4FFFE1211B3
:10081C00BE900330E0FD7F017E001211BE900331CB
:10082C00E0FD7F027E001211BE900332E0FD7F03DB
:10083C007E001211BE900333E0FD7F047E00121186
:10084C00BE900334E0FD7F057E001211BE9003358F
:10085C00E0FD7F067E001211BE900336E0FD7F079F
:10086C007E001211BE900337E0FD7F087E0012114E
:10087C00BE900338E0FD7F097E001211BE90033953
:10088C00E0FD7F0A7E001211BE90033AE0FD7F0B63
:10089C007E001211BE90033BE0FD7F0C7E00121116
:1008AC00BE90033CE0FD7F0D7E001211BE7D587F93
:0608BC000F7E000211BED8
:1008C200E4FFFE12124290032FEFF07F017E00122E
:1008D2001242900330EFF090032FE0FF1213597F82
:1008E200027E00121242900331EFF012134F7F0387
:1008F2007E00121242900332EFF01213227F047E26
:1009020000121242900333EFF07F057E0012124272
:10091200900334EFF07F067E00121242900335EF0F
:10092200F07F077E00121242900336EFF07F087EBE
:1009320000121242900337EFF07F097E001212423A
:10094200900338EFF07F0A7E00121242900339EFD3
:10095200F07F0B7E0012124290033AEFF07F0C7E82
:100962000012124290033BEFF07F0D7E0012124202
:0609720090033CEFF022AF
:1003930060FC021603D503FA04200446046D049599
:1003A30004BE04E70510053A0565059005BB05E79E
:1003B3000613063F066C069906C606F30720074D8B
:1003C300077A07A707D40800082D0859088508B13C
:1003D30008DC09070931095B098409AD09D609FD60
:1003E3000A240A4B0A710A960ABB0ADE0B020B2483
:1003F3000B460B670B870BA70BC60BE40C020C1EFB
:100403000C3A0C560C700C8A0CA40CBC0CD40CECDF
:100413000D020D190D2E0D430D570D6B0D7E0D9015
:100423000DA20DB40DC50DD50DE50DF50E040E127F
:100433000E200E2E0E3B0E480E550E610E6D0E78DD
:100443000E830E8D0E970EA10EAB0EB40EBD0EC60F
:100453000ECF0ED70EDF0EE70EEF0EF60EFD0F04D6
:100463000F0B0F110F170F1D0F230F290F2F0F3511
:100473000F3A0F3F0F440F490F4E0F530F580F5CA6
:100483000F600F650F690F6D0F710F740F780F7C7D
:0E0C8800900352EBF0A3EAF0A3E9F0A3EDF025
:100C9600E4900359F0A3F0900358F0900355E01444
:100CA600FF900358E0FEC39F505A900352E0FBA307
:100CB600E0FAA3E0F975F002EEA4F58285F083125E
:100CC6000202FF900356E0FCA3E0FDC39FEC95F003
:100CD600402AA3E02401FFE433FEEF25E0FFEE33D4
:100CE600FE8F828E83120202FFC3ED9FEC95F050B9
:100CF6000B900358E0FFA3E4F0A3EFF0900358E055
:0C0D060004F08097900359E0FEA3E0FF8A
:010D120022BE
:050FB100900362EFF067
:100FB600E4900364F0A3F0900363F0900362E0FF13
:100FC6001211E0900365E02FF0900364E03EF0908C
:100FD6000363E004F0E0C3940A40E0900364E0FE9B
:100FE600A3E0FF7C007D0A1201AD900364EEF0A33E
:100FF600EFF07B017A027916900364E0FFA3E0909C
:0C1006000356CFF0A3EFF07D7E020C88B3
:0A134F00EFB40103C2A322D2A322CF
:10132200EF75F0B8A4FF90FEF9E5F0F0A3EFF0221C
:0A135900EFB40103C2C122D2C12289
:0A136300900213E0B40102E4F0224E
:0A0493004203660000420368000007
:03009B00020F4D04
:060F4D00C0E0C083C08279
:100F5300900213E07026900367E004F0700690039C
:100F630066E004F0900366E07004A3E06464700C30
:100F730090021304F0900366E4F0A3F0900107E0FD
:100F83007025900369E004F07006900368E004F0B4
:100F9300900368E07004A3E06464700B900368F04E
:070FA300A3F090010704F028
:070FAA00D082D083D0E032B9
:100E0900900000E064017065F07B017A00798190BF
:100E19000105E024FEFD120EE9AD07AC06900105BF
:100E2900E0FB247FF582E43400F583E0FE74802B37
:100E3900F582E43400F583E0FBEBFFE4900105F073
:100E4900EDB50729ECB50625900081E0B4EB1EA3AA
:100E5900E024FC600F24FE600E24F6600D240D7062
:0D0E69000C020ACF021195020B6912000362
:010E76002259
:100E7700900109E064017065F07B017A01798A903D
:100E8700020EE024FEFD120EE9AD07AC0690020E3D
:100E9700E0FB2489F582E43401F583E0FE74882BB6
:100EA700F582E43401F583E0FBEBFFE490020EF0FA
:100EB700EDB50729ECB5062590018AE0B4DC1EA341
:100EC700E024FC600F24FE600E24F6600D240D70F4
:0D0ED7000C02023A02049E020A2E1205A926
:010EE40022EB
:100ACF0090035E7403F0900085A3E025E090035D32
:100ADF00F0900083E0FEA3E0FDEDFF900360EEF0E9
:100AEF00A3EFF090000174EBF0A37403F090035D9B
:100AFF00E0900003F090035DE0F9C313FD900361F4
:100B0F00E02DFD900360E03400FCC3EF9DEE9C50A0
:100B1F0040E490035CF090035BF090035BE0FD908A
:100B2F00035EE0FC04F074012CF582E43400F583DD
:100B3F00EDF090035CE0FD90035EE0FC04F07401C7
:100B4F002CF582E43400F583EDF00FBF00010E8029
:0A0B5F00A4E92403FD7F0302074907
:10023A0090035E7403F090018EA3E025E090035DC5
:10024A00F090018CE0FEA3E0FDEDFF900360EEF07C
:10025A00A3EFF090010A74DCF0A37403F090035D3D
:10026A00E090010CF0AB07AA0690035DE0F9C31316
:10027A00FF900361E02FFF900360E03400FEC3EBC0
:10028A009FEA9E400302038AE490035CF090035BBA
:10029A00F0EA6003020352EBB4080040030203527F
:1002AA009002B1F82828730202C90202D60202E0BB
:1002BA000202EA0202F70203010203220203459044
:1002CA000330E090035BF090032F8077E490035BA8
:1002DA00F0900331806DE490035BF0900332806309
:1002EA00900334E090035BF09003338056E490036C
:1002FA005BF0900335804C900338E025E0FF9003D3
:10030A0037E0FEC41354074F90035BF0EE333333E8
:10031A0054F8FF900336801F90033BE025E0FF90DE
:10032A00033AE0FEC41354074F90035BF0EE3333F5
:10033A003354F8FF900339E04F8009E490035BF0EF
:10034A0090033CE090035CF090035BE0FF90035E57
:10035A00E0FE04F0740A2EF582E43401F583EFF02E
:10036A0090035CE0FF90035EE0FE04F0740A2EF551
:10037A0082E43401F583EFF00BBB00010A02027339
:09038A00E92403FD7F0302097858
:10119500900084E0900329F0900085E0900328F00A
:1011A500900088E090032CF0900089E090032BF0EC
:0911B50090008BE090032DF02264
:10049E0090035E7403F090018EA3E025E090035D5F
:1004AE00F090018CE0FEA3E0FDEDFF900360EEF016
:1004BE00A3EFF090010A74DCF0A37404F090035DD6
:1004CE00E090010CF0900312EEF0A3EFF090035DBC
:1004DE00E0C313FF900361E02FFF900360E0340050
:1004EE00FE900312E0FCA3E0FDC39FEC9E400302CE
:1004FE00059DE490035CF090035BF0EC7050ED14FE
:10050E00601A14602414602E14603A2404703F9014
:10051E000329E090035BF09003288022121332E44B
:10052E0090035BF090032A801590032CE090035B00
:10053E00F090032B8008E490035BF090032DE09085
:10054E00035CF08009E490035BF0A37419F0900350
:10055E005BE0FF90035EE0FE04F0740A2EF582E489
:10056E003401F583EFF090035CE0FF90035EE0FE54
:10057E0004F0740A2EF582E43401F583EFF0900353
:10058E0013E004F07006900312E004F00204DB9016
:0B059E00035DE02403FD7F04020978E8
:100B6900900084E024FD600E14601C14602214605F
:100B79004814606D807690018EE0900334F0900106
:100B89008FE0900333806190018FE09003358058A6
:100B990090018FE0FE5407900336F090018EE0FC3F
:100BA9005401C43354E0FDEE131313541F4D900345
:100BB90037F0ECC313A3F0803390018FE0FE5407A4
:100BC900900339F090018EE0FC5401C43354E0FDE8
:100BD900EE131313541F4D90033AF0ECC313A38083
:100BE9000790018FE090033CF012080C7D087F0606
:030BF90002097876
:100A2E0090018DE0B408004003020ACE900A41F80E
:100A3E00282873020A59020A6F020A7D020A9302DB
:100A4E000A9F020AAA020AB6020AC290018EE0901A
:100A5E000330F090018FE0FF90032FF012135980B6
:100A6E001A90018FE0FF900332F012134F800C901A
:100A7E00018FE0FF900332F01213227D087F0612E1
:100A8E00097802080C90018EE0FDA3E0FB7F038045
:100A9E002C90018FE0FBE4FD7F04802190018EE01D
:100AAE00FDA3E0FB7F05801590018EE0FDA3E0FB2A
:100ABE007F06800990018FE0FBE4FD7F0712106F27
:010ACE002205
:070003009001087401F022D6
:1005A90090035F7407F0900190E090035DF0900173
:1005B9008CE0FEA3E0FDEDFF900360EEF0A3EFF009
:1005C900900312EEF0A3EFF090035DE0C313FF90E8
:1005D9000361E02FFF900360E03400FE900312E016
:1005E900FCA3E0FDC39FEC9E400302067A90035FE3
:1005F900E0248AF582E43401F583E090035BF0900E
:10060900035FE0248BF582E43401F583E090035C19
:10061900F0EC7045ED14601D1460282402703A90C6
:10062900018EE0900330F090018FE0FF90032FF0EE
:10063900121359801A90018FE0FF900332F01213C0
:100649004F800C90018FE0FF900332F01213227D4E
:10065900087F0612097812080C90035FE02402F063
:10066900900313E004F07006900312E004F0020511
:08067900D17D087F1002097811
:05074900900312EDF029
:10074E00EF24FC600F24FE604F24F66064240D60DD
:10075E00030207F97B017A007901900312E0FD1282
:10076E000EE9900313EEF0A3EFF0900313E0FEA357
:10077E00E0FD900312E0FC2402F582E43400F583E0
:10078E00EDF0EEFF74012CF582E43400F583EFF00A
:10079E00900312E02402804F78017C007D017B01E2
:1007AE007A0079817E007F0812016E900312E0803C
:1007BE003678017C007D017B017A0079817E007F95
:1007CE000612016E7A007901120EE5900313EEF017
:1007DE00A3EFF0900313E0FEA3E0900008F0EE907C
:1007EE000007F0900312E0900101F0D2847F027EA8
:0E07FE00001212224384027F017E00021222AA
:05097800900314EDF0F6
:10097D00EF24FC600F24FE604F24F66064240D60AC
:10098D0003020A257B017A01790A900314E0FD1216
:10099D000EE9900315EEF0A3EFF0900315E0FCA324
:1009AD00E0FDECFF900314E0FE240BF582E434012E
:1009BD00F583EFF0740A2EF582E43401F583EDF042
:1009CD00900314E02402804C780A7C017D017B01A8
:1009DD007A01798A7E007F0812016E900314E080FF
:1009ED0033780A7C017D017B017A01798A7E007F53
:1009FD000612016E7A01790A120EE5900315EEF0DA
:100A0D00A3EFF0900315E0FEA3E0900110F0EEF0DF
:100A1D00900314E090020AF0D2997F017E00021239
:010A2D0022A6
:040EE5007B017D060A
:050EE900900325EDF06F
:100EEE0074FFA3F0A3F0120194FF900326E0F0A389
:100EFE00E06FF0E4FD900326E0FEA3E0FF30E01982
:100F0E00EEC313FEEF13FFEE64A0FEEF6401FF903D
:100F1E000326EEF0A3EFF0800B900326E0C313F050
:100F2E00A3E013F00DEDB408CC740129F9E43AFAFC
:0E0F3E00900325E014F070AEA3E0FEA3E0FFE8
:010F4C002282
:10133200209706E490032AF02290032A7401F022F7
:1006810090031274EBF0A37410F0E4A3F0A3F0A3B1
:10069100F0A37405F0A3740AF0900334E0900319F9
:1006A100F0900333E090031AF0E4A3F0900335E0F7
:1006B10090031CF0900338E025E0FF900337E0FE43
:1006C100C41354074F90031DF0EE33333354F8FF36
:1006D100900336E04F90031EF090033BE025E0FFCE
:1006E10090033AE0FEC41354074F90031FF0EE331A
:1006F100333354F8FF900339E04F900320F0E4A323
:10070100F090033CE0900322F07B017A0379127DA3
:1007110011120EE9AC06EC900323F0A3EFF078017F
:100721007C007D017A0379127E007F1312016E90A5
:1007310001017413F0D2847F027E001212224384DD
:08074100027F017E000212227A
:10106F0090031274EBF0A37406F0E4A3F0A3EFF077
:10107F00A3EDF0A3EBF07B017A0379127D06120E3C
:10108F00E9AC06EC900318F0A3EFF078017C007D3B
:10109F00017A0379127E007F0812016E90010174AC
:1010AF0008F0D2847F027E001212224384027F0155
:0510BF007E0002122278
:10110C0090031274EBF0A37404F0E4A3F0A3F0A327
:10111C00F0A37404F0A314F0A374E7F078017C003E
:10112C007D017B017A0379127E007F0812016E909B
:10113C0001017408F0D2847F027E001212224384D3
:08114C00027F017E0002122265
:03000000020BFCF4
:0C0BFC00787FE4F6D8FD758109020C43F7
:10009E00E709F608DFFA8046E709F208DFFA803E44
:1000AE0088828C83E709F0A3DFFA8032E309F60831
:1000BE00DFFA8078E309F208DFFA807088828C8399
:1000CE00E309F0A3DFFA806489828A83E0A3F6084D
:1000DE00DFFA805889828A83E0A3F208DFFA804C27
:1000EE0080D280FA80C680D4806980F280338010FE
:1000FE0080A680EA809A80A880DA80E280CA803367
:10010E0089828A83ECFAE493A3C8C582C8CCC583DE
:10011E00CCF0A3C8C582C8CCC583CCDFE9DEE780AE
:10012E000D89828A83E493A3F608DFF9ECFAA9F02D
:10013E00EDFB2289828A83ECFAE0A3C8C582C8CC83
:10014E00C583CCF0A3C8C582C8CCC583CCDFEADE9C
:10015E00E880DB89828A83E493A3F208DFF980CCFE
:10016E0088F0EF60010E4E60C388F0ED2402B404F7
:10017E000050B9F582EB2402B4040050AF2323459E
:06018E0082239000EE73D5
:10019400BB010689828A83E0225002E722BBFE0269
:0901A400E32289828A83E493229C
:1001AD00BC000BBE0029EF8DF084FFADF022E4CC36
:1001BD00F875F008EF2FFFEE33FEEC33FCEE9DECFF
:1001CD00984005FCEE9DFE0FD5F0E9E4CEFD22ED45
:1001DD00F8F5F0EE8420D21CFEADF075F008EF2F8F
:1001ED00FFED33FD4007985006D5F0F222C398FD80
:0501FD000FD5F0EA221D
:10020200BB0110E58229F582E5833AF583E0F5F03A
:10021200A3E0225009E92582F886F008E622BBFE17
:100222000AE92582F8E2F5F008E222E5832AF5835D
:08023200E993F5F0A3E9932222
:100C0800021012E493A3F8E493A34003F68001F2E0
:100C180008DFF48029E493A3F85407240CC8C333ED
:100C2800C4540F4420C8834004F456800146F6DFBC
:100C3800E4800B0102040810204080900393E47EB6
:100C4800019360BCA3FF543F30E509541FFEE493B1
:100C5800A360010ECF54C025E060A840B8E493A378
:100C6800FAE493A3F8E493A3C8C582C8CAC583CAA3
:100C7800F0A3C8C582C8CAC583CADFE9DEE780BE5B
:01049D00005E
:00000001FF
