:10103100D3EF9400EE9400401600000075080B7584
:0F10410009BED509FDD508FAEF1F70E41E80E146
:01105000227D
:10000E00D3EF9400EE9400400A000000EF1F70F052
:04001E001E80ED2231
:1010C90043BC807F0A7E0012103153DEFC43DE0CE4
:0A10D90053BCDF53A8DF43DE2022E2
:100FEF00E4FDFC53BCF0EF444042BCE5BC30E5FBF4
:100FFF0053BCDF53BCBFAFBDEFADBEFCEDAE04FFC6
:01100F0022BE
:0D118600E4F5C7F5C5F5C675C380F5C422B4
:1010900075C78075F50C75C5038FC4EEF5C375C6AD
:0E10A0005A75C6A57F0A7E0012103102118615
:100FCD0075C78075F50C75C5028FC4EEF5C3AF05F9
:100FDD008FC275C65A75C6A57F0A7E0012103102E2
:020FED0011866B
:1010510075C78075F50C75C5018FC4EEF5C375C6EE
:101061005A75C6A57F0A7E00121031AFC2021186E1
:10107100759418E4F593F5927591F975960EF595B9
:0F10810075B2C2F5B175B48EF5B3F5CAF5C922D3
:100DF10043BA801210711210FD1211161210C9128D
:100E0100112D121010121143120F8C121156D2AF64
:100E1100120EF8900108E0700F120473120C507F4B
:100E21000A7E0012103180EBE4900250F07F14FE34
:100E3100121031120C50120D261210E3900107E02E
:0D0E4100B401F0120F44E4900107F080E6C8
:100F8C0043BA8090FEB6E0F090FEEDE4F090FEEAFD
:100F9C007470F090FEED7401F090FEF27404F0A306
:100FAC007451F090FEF0E4F0A37431F090FEB5E0D3
:100FBC004410F090FEFD7480F090FEE0E04401F0EF
:010FCC002202
:10114300438E805389F0758ACD758CD4C28DD28C31
:03115300D2A922FC
:1011560053D1FDE4F5D575D4DC43D10843AF202245
:1010FD0053A23F759850438E01438E0475D7E87502
:09110D00D6FF438E1075A81022D4
:10112D0075841043844043D12075D3E875D2FF43B5
:06113D00D18043AF102237
:10101000E4900000F0900081F0900101F0F0A3F066
:10102000A3F0A3F0A3F0C28490010704F0E4A3F0BE
:01103000229D
:10111600E4900109F090018AF090020AF0F0A3F041
:07112600A3F0A3F0A3F022E7
:03009300020B5A03
:100B5A00C0E0C083C082C0D075D000C007E5843031
:100B6A00E12A5384FD900101E0601AA3E0FF04F03A
:100B7A0074012FF582E43400F583E0F585900101D4
:100B8A00E014F08007900102E4F0C284E58430E0CA
:100B9A00335384FE900000E07021900105E0D39465
:100BAA00804002E4F0900105E02481F582E43400FB
:100BBA00F583E585F0900105E004F0900103E4F087
:0F0BCA00A37405F0D007D0D0D082D083D0E03212
:03002300020BD9F4
:100BD900C0E0C083C082C0D075D000C0073099275B
:100BE900C29990020AE0601AA3E0FF04F0740A2F88
:100BF900F582E43401F583E0F59990020AE014F0F6
:100C0900800590020BE4F0309832C298900109E017
:100C1900702190020EE0D394804002E4F090020E1D
:100C2900E0248AF582E43401F583E599F090020E17
:100C3900E004F090020CE4F0A37405F0D007D0D0E2
:070C4900D082D083D0E0321D
:03000B00020026CA
:10002600C0E0C083C082C0D0900103E07002A3E0AC
:100036006024900104E024FFF0900103E034FFF017
:10004600E07002A3E0700F900105E0D39400400633
:100056009000007401F090020CE07002A3E06024AE
:1000660090020DE024FFF090020CE034FFF0E07007
:1000760002A3E0700F90020EE0D3940040069001B8
:0D008600097401F0D0D0D082D083D0E032D8
:100EF8007F0F7E00121051EFF4703E90021604F03E
:100F0800A3743CF0A37401F0A37403F0A37401F07C
:100F1800A3743CF0A37401F0A3F0A3740AF0A374C3
:100F280014F0A37402F0A3740FF0A37419F0A3745F
:0C0F380032F0A37401F01206C30207851A
:1006C300E4FFFE121090900216E0FDE4FFFE120F0D
:1006D300CD900217E0FD7F017E00120FCD9002182E
:1006E300E0FD7F027E00120FCD900219E0FD7F0333
:1006F3007E00120FCD90021AE0FD7F047E00120FE0
:10070300CD90021BE0FD7F057E00120FCD90021CF1
:10071300E0FD7F067E00120FCD90021DE0FD7F07F6
:100723007E00120FCD90021EE0FD7F087E00120FA7
:10073300CD90021FE0FD7F097E00120FCD900220B5
:10074300E0FD7F0A7E00120FCD900221E0FD7F0BBA
:100753007E00120FCD900222E0FD7F0C7E00120F6F
:10076300CD900223E0FD7F0D7E00120FCD90022479
:10077300E0FD7F0E7E00120FCD7D587F0F7E0002BD
:020783000FCD98
:10078500E4FFFE121051900216EFF07F017E001279
:100795001051900217EFF01210AE7F027E0012107A
:1007A50051900218EFF012119E7F037E0012105136
:1007B500900219EFF01211667F047E00121051901D
:1007C500021AEFF07F057E0012105190021BEFF028
:1007D5007F067E0012105190021CEFF07F077E000D
:1007E50012105190021DEFF07F087E0012105190FB
:1007F500021EEFF07F097E0012105190021FEFF0EC
:100805007F0A7E00121051900220EFF07F0B7E00D0
:10081500121051900221EFF07F0C7E0012105190C2
:100825000222EFF07F0D7E00121051900223EFF0AF
:0D0835007F0E7E00121051900224EFF02281
:050E4E0090022CEFF002
:100E5300E490022EF0A3F090022DF090022CE0FF1C
:100E6300120FEF90022FE02FF090022EE03EF09051
:100E7300022DE004F0E0C3940A40E090022EE0FE6D
:100E8300A3E0FF7C007D0A12031490022EEEF0A370
:100E9300EFF02472FFEE34FDFE7C007D1702031495
:0A119E00EFB40103C2A322D2A32282
:10116600EF75F0B8A4FF90FEF9E5F0F0A3EFF022DA
:1010AE00900216E0B40111A3E0FF900215E0C39F79
:0B10BE005003C2C122D2C122D2C122C5
:1010E300900250E0B40112E4FF120E4E900215EF8D
:0A10F300F01210AEE4900250F0225B
:0A11930042025A000042025C000014
:03009B00020D8DC6
:060D8D00C0E0C083C0823B
:100D9300900250E0702690025BE004F0700690022F
:100DA3005AE004F090025AE07004A3E06464700C0B
:100DB30090025004F090025AE4F0A3F0900107E08F
:100DC300702590025DE004F0700690025CE004F090
:100DD30090025CE07004A3E06464700B90025CF02A
:070DE300A3F090010704F0EA
:070DEA00D082D083D0E0327B
:100C5000900000E064017065F07B017A007981907A
:100C60000105E024FEFD120CC2AD07AC06900105A3
:100C7000E0FB247FF582E43400F583E0FE74802BF2
:100C8000F582E43400F583E0FBEBFFE4900105F02E
:100C9000EDB50729ECB50625900081E0B4EB1EA365
:100CA000E024FC600F24FE600E24F6600D240D701D
:0D0CB0000C0209A102053B020A3B120003E1
:010CBD002214
:100D2600900109E06401705EF07B017A01798A9096
:100D3600020EE024FEFD120CC2AD07AC0690020EB8
:100D4600E0FB2489F582E43401F583E0FE74882B08
:100D5600F582E43401F583E0FBEBFFE490020EF04C
:100D6600EDB50722ECB5061E90018AE0B4DC17A3A8
:100D7600E024FC600B24FE600A2403700902009E36
:060D86000203691208F8E7
:010D8C002244
:1009A1009002567403F0900085A3E025E090025573
:1009B100F0900083E0FEA3E0FDEDFF900258EEF021
:1009C100A3EFF090000174EBF0A37403F0900255D3
:1009D100E0900003F0900255E0F9C313FD90025935
:1009E100E02DFD900258E03400FCC3EF9DEE9C50D9
:1009F10040E4900254F0900253F0900253E0FD90D5
:100A01000256E0FC04F074012CF582E43400F58315
:100A1100EDF0900254E0FD900256E0FC04F0740108
:100A21002CF582E43400F583EDF00FBF00010E8058
:0A0A3100A4E92403FD7F0302060080
:10009E009002567403F090018EA3E025E090025575
:1000AE00F090018CE0FEA3E0FDEDFF900258EEF023
:1000BE00A3EFF090010A74DCF0A37403F0900255E4
:1000CE00E090010CF0AB07AA06900255E0F9C313BD
:1000DE00FF900259E02FFF900258E03400FEC3EB70
:1000EE009FEA9E40030201FCE4900254F0900253FA
:1000FE00F0EA60030201C4EBB4090040030201C43C
:10010E00900115F828287302013002013D020147C3
:10011E0002015102015E0201680201890201AC0274
:10012E0001B7900217E0900253F09002168077E428
:10013E00900253F0900218806DE4900253F09002FA
:10014E0019806390021BE0900253F090021A8056C1
:10015E00E4900253F090021C804C90021FE025E0C8
:10016E00FF90021EE0FEC41354074F900253F0EEB0
:10017E0033333354F8FF90021D801F900222E02586
:10018E00E0FF900221E0FEC41354074F900253F09B
:10019E00EE33333354F8FF900220E04F8014E49096
:1001AE000253F0900223E08009E4900253F0900293
:1001BE0024E0900254F0900253E0FF900256E0FECD
:1001CE0004F0740A2EF582E43401F583EFF0900208
:1001DE0054E0FF900256E0FE04F0740A2EF582E41D
:1001EE003401F583EFF00BBB00010A0200D7E924BE
:0701FE0003FD7F030208422C
:10053B00900084E0900210F0900085E090020FF0A4
:10054B005403900225F090020FE0540C1313543F08
:10055B00900226F090020FE05430C4540F90022703
:10056B00F090020FE054C0C413135403900228F010
:10057B00900210E05403900229F0900210E0540C0A
:10058B001313543F90022AF0900224E0B4010F9011
:10059B000210E05430C4540F90022BF080069002EE
:1005AB002B7403F0900225E06401602AA3E0640140
:1005BB006024A3E06401601EA3E064016018A3E063
:1005CB0064016012A3E06401600CA3E064016006A7
:1005DB00900211E07004C2C78002D2C7900088E07D
:1005EB00900213F0900089E0900212F090008BE0E3
:0505FB00900214F02243
:100369009002567403F090018EA3E025E0900255A7
:10037900F090018CE0FEA3E0FDEDFF900258EEF055
:10038900A3EFF090010A74DCF0A37404F090025515
:10039900E090010CF090022CEEF0A3EFF0900255E2
:1003A900E0C313FF900259E02FFF900258E0340098
:1003B900FE90022CE0FCA3E0FDC39FEC9E400302EB
:1003C9000467E4900254F0900253F0EC704FED147E
:1003D900601A14602414602E1460352404703E9051
:1003E9000210E0900253F090020F802C121176E473
:1003F900900253F0900211801F900213E090025373
:10040900F09002128012E4900253F09002148008D6
:10041900E4900253F0900215E0900254F0900253D8
:10042900E0FF900256E0FE04F0740A2EF582E434EF
:1004390001F583EFF0900254E0FF900256E0FE04CC
:10044900F0740A2EF582E43401F583EFF090022D61
:10045900E004F0700690022CE004F00203A690027A
:0A04690055E02403FD7F0402084261
:100A3B00900084E024FD600E14601C14602214608E
:100A4B004814606D807690018EE090021BF090014F
:100A5B008FE090021A806190018FE090021C805809
:100A6B0090018FE0FE540790021DF090018EE0FC88
:100A7B005401C43354E0FDEE131313541F4D900275
:100A8B001EF0ECC313A3F0803390018FE0FE5407EC
:100A9B00900220F090018EE0FC5401C43354E0FD31
:100AAB00EE131313541F4D900221F0ECC313A380CC
:100ABB000790018FE0900223F01206C37D087F069A
:030ACB00020842DC
:1008F80090018DE0B4090040030209A090090BF8AB
:1009080028287302092602093702094502095302F9
:10091800095F02096A02097602098202098E9001BA
:100928008EE0900217F090018FE0900216805E90A2
:10093800018FE0FF900218F012119E805190018FF4
:10094800E0FF900219F0121166804390018EE0FDDD
:10095800A3E0FB7F03802C90018FE0FBE4FD7F0484
:10096800802190018EE0FDA3E0FB7F0580159001BA
:100978008EE0FDA3E0FB7F06800990018FE0FBE499
:10098800FD7F07020EA390018FE0900224F07D08FE
:090998007F061208421206C32278
:070003009001087401F022D6
:0506000090022CEDF05A
:10060500EF24FC600F24FE604F24F66064240D6027
:10061500030206B07B017A00790190022CE0FD12FD
:100625000CC290022DEEF0A3EFF090022DE0FEA398
:10063500E0FD90022CE0FC2402F582E43400F58311
:10064500EDF0EEFF74012CF582E43400F583EFF054
:1006550090022CE02402804F78017C007D017B0113
:100665007A0079817E007F081202D590022CE08005
:100675003678017C007D017B017A0079817E007FDF
:10068500061202D57A007901120CBE90022DEEF009
:10069500A3EFF090022DE0FEA3E0900008F0EE90AD
:1006A5000007F090022CE0900101F0D2847F027ED9
:0E06B500001210314384027F017E00021031DA
:0508420090022EEDF014
:10084700EF24FC600F24FE604F24F66064240D60E3
:10085700030208EF7B017A01790A90022EE0FD126C
:100867000CC290022FEEF0A3EFF090022FE0FCA352
:10087700E0FDECFF90022EE0FE240BF582E434014C
:10088700F583EFF0740A2EF582E43401F583EDF079
:1008970090022EE02402804C780A7C017D017B01C6
:1008A7007A01798A7E007F081202D590022EE080B5
:1008B70033780A7C017D017B017A01798A7E007F8A
:1008C700061202D57A01790A120CBE90022FEEF0B9
:1008D700A3EFF090022FE0FEA3E0900110F0EEF0FE
:1008E70090022EE090020AF0D2997F017E0002105A
:0108F70031CF
:040CBE007B017D0633
:050CC20090023FEDF07F
:100CC70074FFA3F0A3F01202FBFF900240E0F0A331
:100CD700E06FF0E4FD900240E0FEA3E0FF30E01992
:100CE700EEC313FEEF13FFEE64A0FEEF6401FF9067
:100CF7000240EEF0A3EFF0800B900240E0C313F048
:100D0700A3E013F00DEDB408CC740129F9E43AFA25
:0E0D170090023FE014F070AEA3E0FEA3E0FFF8
:010D250022AB
:10117600209706E4900211F0229002117401F022E9
:1004730090022C74EBF0A37410F0E4A3F0A3F0A3A8
:10048300F0A37405F0A3740AF090021BE09002330A
:10049300F090021AE0900234F0E4A3F090021CE022
:1004A300900236F090021FE025E0FF90021EE0FE6E
:1004B300C41354074F900237F0EE33333354F8FF2D
:1004C30090021DE04F900238F0900222E025E0FFF9
:1004D300900221E0FEC41354074F900239F0EE332B
:1004E300333354F8FF900220E04F90023AF0E4A334
:1004F300F0900223E090023CF07B017A02792C7D9C
:1005030011120CC2AC06EC90023DF0A3EFF078019F
:100513007C007D017A02792C7E007F131202D59034
:1005230001017413F0D2847F027E001210314384E0
:08053300027F017E000210317D
:100EA30090022C74EBF0A37406F0E4A3F0A3EFF02C
:100EB300A3EDF0A3EBF07B017A02792C7D06120CF3
:100EC300C2AC06EC900232F0A3EFF078017C007D17
:100ED300017A02792C7E007F081202D590010174F9
:100EE30008F0D2847F027E001210314384027F0116
:050EF3007E0002103139
:100F440090022C74EBF0A37404F0E4A3F0A3F0A3D8
:100F5400F0A37404F0A314F0A374E7F078017C0008
:100F64007D017B017A02792C7E007F081202D590E4
:100F740001017408F0D2847F027E00121031438490
:080F8400027F017E0002103122
:03000000020ACE23
:0C0ACE00787FE4F6D8FD758109020B1555
:10020500E709F608DFFA8046E709F208DFFA803EDB
:1002150088828C83E709F0A3DFFA8032E309F608C8
:10022500DFFA8078E309F208DFFA807088828C8330
:10023500E309F0A3DFFA806489828A83E0A3F608E4
:10024500DFFA805889828A83E0A3F208DFFA804CBE
:1002550080D280FA80C680D4806980F28033801095
:1002650080A680EA809A80A880DA80E280CA8033FE
:1002750089828A83ECFAE493A3C8C582C8CCC58376
:10028500CCF0A3C8C582C8CCC583CCDFE9DEE78046
:100295000D89828A83E493A3F608DFF9ECFAA9F0C5
:1002A500EDFB2289828A83ECFAE0A3C8C582C8CC1B
:1002B500C583CCF0A3C8C582C8CCC583CCDFEADE34
:1002C500E880DB89828A83E493A3F208DFF980CC96
:1002D50088F0EF60010E4E60C388F0ED2402B4048F
:1002E5000050B9F582EB2402B4040050AF23234536
:0602F50082239002557304
:1002FB00BB010689828A83E0225002E722BBFE0201
:09030B00E32289828A83E4932233
:10031400BC000BBE0029EF8DF084FFADF022E4CCCD
:10032400F875F008EF2FFFEE33FEEC33FCEE9DEC96
:10033400984005FCEE9DFE0FD5F0E9E4CEFD22EDDC
:10034400F8F5F0EE8420D21CFEADF075F008EF2F26
:10035400FFED33FD4007985006D5F0F222C398FD17
:050364000FD5F0EA22B4
:100ADA00020DF1E493A3F8E493A34003F68001F234
:100AEA0008DFF48029E493A3F85407240CC8C3331D
:100AFA00C4540F4420C8834004F456800146F6DFEC
:100B0A00E4800B0102040810204080901193E47ED7
:100B1A00019360BCA3FF543F30E509541FFEE493E0
:100B2A00A360010ECF54C025E060A840B8E493A3A7
:100B3A00FAE493A3F8E493A3C8C582C8CAC583CAD2
:100B4A00F0A3C8C582C8CAC583CADFE9DEE780BE8A
:01119D000051
:00000001FF
