:10132A00D3EF9400EE9400401600000075080B7588
:0F133A0009BED509FDD508FAEF1F70E41E80E14A
:011349002281
:10000E00D3EF9400EE9400400A000000EF1F70F052
:04001E001E80ED2231
:1013C20043BC807F0A7E0012132A53DEFC43DE0CEC
:0A13D20053BCDF53A8DF43DE2022E6
:10130900E4FDFC53BCF0EF444042BCE5BC30E5FBD6
:1013190053BCDF53BCBFAFBDEFADBEFCEDAE04FFA8
:0113290022A1
:0D149800E4F5C7F5C5F5C675C380F5C4229F
:1013890075C78075F50C75C5038FC4EEF5C375C6B1
:0E1399005A75C6A57F0A7E0012132A02149808
:1012E70075C78075F50C75C5028FC4EEF5C3AF05DC
:1012F7008FC275C65A75C6A57F0A7E0012132A02C9
:02130700149838
:10134A0075C78075F50C75C5018FC4EEF5C375C6F2
:10135A005A75C6A57F0A7E0012132AAFC2021498D4
:10136A00759418E4F593F5927591F875960EF595BE
:0F137A0075B2C2F5B175B48EF5B3F5CAF5C922D7
:1012B40043BA8012136A1213F61214281213C212BC
:1012C400143F12140F12145512123A121468D2AFAA
:1012D4001211F2E4900211F0120F2E120F9C12134D
:0312E400DC80F5B6
:10123A0043BA8090FEB6E0F090FEEDE4F090FEEA4C
:10124A007470F090FEED7401F090FEF27404F0A355
:10125A007451F090FEF0E4F0A37431F090FEB5E022
:10126A004410F090FEFD7480F090FEE0E04401F03E
:01127A002251
:10145500438E805389F0758ACD758CD4C28DD28C1C
:03146500D2A922E7
:1014680053D1FDE4F5D575D4DC43D10843AF202230
:1013F60053A23F759850438E01438E0475D7E87506
:09140600D6FF438E1075A81022D8
:10143F0075841043844043D12075D3E875D2FF43A0
:06144F00D18043AF102222
:10140F00E4900000F0900081F0900101F0F0A3F063
:09141F00A3F0A3F0A3F0C28422A3
:10142800E4900107F0900188F0900208F0F0A3F032
:07143800A3F0A3F0A3F022D2
:03009300020E3822
:100E3800C0E0C083C082C0D075D000C007E5843050
:100E4800E12A5384FD900101E0601AA3E0FF04F059
:100E580074012FF582E43400F583E0F585900101F3
:100E6800E014F08007900102E4F0C284E58430E0E9
:100E7800335384FE900000E07021900105E0D39484
:100E8800804002E4F0900105E02481F582E434001A
:100E9800F583E585F0900105E004F0900103E4F0A6
:0F0EA800A37405F0D007D0D0D082D083D0E03231
:03002300020EB713
:100EB700C0E0C083C082C0D075D000C0073099277A
:100EC700C299900208E0601AA3E0FF04F074082FAB
:100ED700F582E43401F583E0F599900208E014F017
:100EE7008005900209E4F0309832C298900107E03B
:100EF700702190020CE0D394804002E4F090020C41
:100F0700E02488F582E43401F583E599F090020C3A
:100F1700E004F090020AE4F0A37405F0D007D0D003
:070F2700D082D083D0E0323C
:03000B00020026CA
:10002600C0E0C083C082C0D0900103E07002A3E0AC
:100036006024900104E024FFF0900103E034FFF017
:10004600E07002A3E0700F900105E0D39400400633
:100056009000007401F090020AE07002A3E06024B0
:1000660090020BE024FFF090020AE034FFF0E0700B
:1000760002A3E0700F90020CE0D3940040069001BA
:0D008600077401F0D0D0D082D083D0E032DA
:1013A700D2907F027E0012000EC2907F197E00123B
:0B13B700132AD2907F1E7E0002000E61
:10107200E490032AF0900329F03090FD7F287E004F
:1010820012000E30901F2090FD90032AE0FF900383
:1010920029E0FEC374079EFEF87401088002C33380
:1010A200D8FC4F801B90032AE0FF900329E0FEC387
:1010B20074079EFEF87401088002C333D8FCF45F03
:1010C20090032AF0900329E004F0E0C3940840A9B9
:0510D20090032AE0FF7D
:0110D70022F6
:1010D8001213A720905D3090FD2090FD12107290A1
:1010E8000325EFF0121072900326EFF012107290A1
:1010F8000327EFF0121072900328EFF0121072D24B
:1011080090900326E0FD900325E0F92DFDE433FCE3
:10111800900327E0FE7A002DFDEA3CFCA3E02DFDBC
:10112800EA3CFCEFB5050CEAB50408900212EEF0B3
:03113800A3E9F038
:01113B002291
:1011F2007F0F7E0012134AEFF4703A90031704F047
:10120200A3743CF0A37401F0A37403F0A37401F07F
:10121200A3743CF0A37401F0A3F0A3740AF0A374C6
:1012220014F0A37402F0A3740FF0A37419F0A37462
:0812320032F01208B40207FCBF
:1008B400E4FFFE121389900317E0FDE4FFFE121219
:1008C400E7900318E0FD7F017E001212E790031900
:1008D400E0FD7F027E001212E790031AE0FD7F0321
:1008E4007E001212E790031BE0FD7F047E001212CB
:1008F400E790031CE0FD7F057E001212E790031DC4
:10090400E0FD7F067E001212E790031EE0FD7F07E4
:100914007E001212E790031FE0FD7F087E00121292
:10092400E7900320E0FD7F097E001212E790032187
:10093400E0FD7F0A7E001212E7900322E0FD7F0BA8
:100944007E001212E7900323E0FD7F0C7E0012125A
:10095400E7900324E0FD7F0D7E001212E77D587FAF
:060964000F7E000212E705
:1007FC00E4FFFE12134A900317EFF07F017E001204
:10080C00134A900318EFF0900317E0FF1214AF7F18
:10081C00027E0012134A900319EFF01214A57F0305
:10082C007E0012134A90031AEFF01214787F047EA4
:10083C000012134A90031BEFF07F057E0012134A3F
:10084C0090031CEFF07F067E0012134A90031DEFFD
:10085C00F07F077E0012134A90031EEFF07F087E94
:10086C000012134A90031FEFF07F097E0012134A07
:10087C00900320EFF07F0A7E0012134A900321EFC1
:10088C00F07F0B7E0012134A900322EFF07F0C7E58
:10089C000012134A900323EFF07F0D7E0012134ACF
:0808AC00900324EFF002073F66
:10049E0060FC021403D503FA04200446046D04958F
:1004AE0004BE04E70510053A0565059005BB05E792
:1004BE000613063F066C069906C606F30720074D7F
:1004CE00077A07A707D40800082D0859088508B130
:1004DE0008DC09070931095B098409AD09D609FD54
:1004EE000A240A4B0A710A960ABB0ADE0B020B2477
:1004FE000B460B670B870BA70BC60BE40C020C1EEF
:10050E000C3A0C560C700C8A0CA40CBC0CD40CECD3
:10051E000D020D190D2E0D430D570D6B0D7E0D9009
:10052E000DA20DB40DC50DD50DE50DF50E040E1273
:10053E000E200E2E0E3B0E480E550E610E6D0E78D1
:10054E000E830E8D0E970EA10EAB0EB40EBD0EC603
:10055E000ECF0ED70EDF0EE70EEF0EF60EFD0F04CA
:10056E000F0B0F110F170F1D0F230F290F2F0F3505
:10057E000F3A0F3F0F440F490F4E0F530F580F5C9A
:10058E000F600F650F690F6D0F710F740F780F7C71
:0E0D2600900329EBF0A3EAF0A3E9F0A3EDF0AF
:100D3400E4900330F0A3F090032FF090032CE01420
:100D4400FF90032FE0FEC39F505A900329E0FBA3BA
:100D5400E0FAA3E0F975F002EEA4F58285F08312BF
:100D64000202FF90032DE0FCA3E0FDC39FEC95F08D
:100D7400402AA3E02401FFE433FEEF25E0FFEE3335
:100D8400FE8F828E83120202FFC3ED9FEC95F0501A
:100D94000B90032FE0FFA3E4F0A3EFF090032FE008
:0C0DA40004F08097900330E0FEA3E0FF15
:010DB0002220
:05113C00900325EFF017
:10114100E4900327F0A3F0900326F0900325E0FF3D
:10115100121309900328E02FF0900327E03EF0904E
:101161000326E004F0E0C3940A40E0900327E0FE88
:10117100A3E0FF7C007D0A1201AD900327EEF0A3EE
:10118100EFF07B017A027914900327E0FFA3E0904E
:0C119100032DCFF0A3EFF07D7E020D26B1
:0A14A500EFB40103C2A322D2A32278
:10147800EF75F0B8A4FF90FEF9E5F0F0A3EFF022C5
:0A14AF00EFB40103C2C122D2C12232
:1013DC00900211E0B401127F0412113C90020DEF47
:0A13EC00F01210D8E4900211F02274
:05059E004203550000BE
:03009B0002127BD3
:06127B00C0E0C083C08248
:10128100900211E07026900356E004F0700690037E
:1012910055E004F0900355E07004A3E06464700C21
:0C12A10090021104F0900355E4F0A3F05B
:0712AD00D082D083D0E032B3
:100F2E00900000E064017065F07B017A0079819099
:100F3E000105E024FEFD12100EAD07AC0690010572
:100F4E00E0FB247FF582E43400F583E0FE74802B11
:100F5E00F582E43400F583E0FBEBFFE4900105F04D
:100F6E00EDB50729ECB50625900081E0B4EB1EA384
:100F7E00E024FC600F24FE600E24F6600D240D703C
:0D0F8E000C020B66020C00020DB1120A20CD
:010F9B002233
:100F9C00900107E064017065F07B017A017988901B
:100FAC00020CE024FEFD12100EAD07AC0690020CF4
:100FBC00E0FB2487F582E43401F583E0FE74862B94
:100FCC00F582E43401F583E0FBEBFFE490020CF0D6
:100FDC00EDB50729ECB50625900188E0B4DC1EA31D
:100FEC00E024FC600F24FE600E24F6600D240D70CE
:0D0FFC000C02023A020393020AC61205A479
:0110090022C4
:100B66009003517403F0900085A3E025E0900350B4
:100B7600F0900083E0FEA3E0FDEDFF900353EEF05E
:100B8600A3EFF090000174EBF0A37403F090035010
:100B9600E0900003F0900350E0F9C313FD90035476
:100BA600E02DFD900353E03400FCC3EF9DEE9C5016
:100BB60040E490034FF090034EF090034EE0FD901A
:100BC6000351E0FC04F074012CF582E43400F58353
:100BD600EDF090034FE0FD900351E0FC04F074014A
:100BE6002CF582E43400F583EDF00FBF00010E8092
:0A0BF600A4E92403FD7F0302067C3E
:10023A009003517403F090018CA3E025E0900350E1
:10024A00F090018AE0FEA3E0FDEDFF900353EEF08B
:10025A00A3EFF090010874DCF0A37403F09003504C
:10026A00E090010AF0AB07AA06900350E0F9C31325
:10027A00FF900354E02FFF900353E03400FEC3EBDA
:10028A009FEA9E400302038AE490034FF090034ED4
:10029A00F0EA6003020352EBB4080040030203527F
:1002AA009002B1F82828730202C90202D60202E0BB
:1002BA000202EA0202F70203010203220203459044
:1002CA000318E090034EF09003178077E490034EF2
:1002DA00F0900319806DE490034EF090031A806346
:1002EA0090031CE090034EF090031B8056E49003A9
:1002FA004EF090031D804C900320E025E0FF900310
:10030A001FE0FEC41354074F90034EF0EE3333330D
:10031A0054F8FF90031E801F900323E025E0FF900E
:10032A000322E0FEC41354074F90034EF0EE33331A
:10033A003354F8FF900321E04F8009E490034EF014
:10034A00900324E090034FF090034EE0FF90035196
:10035A00E0FE04F074082EF582E43401F583EFF030
:10036A0090034FE0FF900351E0FE04F074082EF56D
:10037A0082E43401F583EFF00BBB00010A02027339
:09038A00E92403FD7F0302096A66
:100C00009003517403F0900085A3E025E090035019
:100C1000F0900083E0FEA3E0FDEDFF900353EEF0C3
:100C2000A3EFF090000174EBF0A37404F090035074
:100C3000E0900003F0900350E0F9C313FD900354DB
:100C4000E02DFD900353E03400FCC3EF9DEE9C507B
:100C500040E490034FF090034EF090034EE0FD907F
:100C60000351E0FC04F074012CF582E43400F583B8
:100C7000EDF090034FE0FD900351E0FC04F07401AF
:100C80002CF582E43400F583EDF00FBF00010E80F7
:0A0C9000A4E92403FD7F0402067CA2
:100393009003517403F090018CA3E025E090035087
:1003A300F090018AE0FEA3E0FDEDFF900353EEF031
:1003B300A3EFF090010874DCF0A37404F0900350F1
:1003C300E090010AF0900325EEF0A3EFF0900350C4
:1003D300E0C313FF900354E02FFF900353E0340076
:1003E300FE900325E0FCA3E0FDC39FEC9E400302C7
:1003F3000492E490034FF090034EF0EC7050ED1430
:10040300601A14602414602E14603A2404703F9020
:100413000311E090034EF09003108022121488E43D
:1004230090034EF09003128015900213E090034E58
:10043300F09002128008E490034EF090020DE090D9
:10044300034FF08009E490034EF0A37419F0900376
:100453004EE0FF900351E0FE04F074082EF582E4B1
:100463003401F583EFF090034FE0FF900351E0FE7A
:1004730004F074082EF582E43401F583EFF0900361
:1004830026E004F07006900325E004F00203D09008
:0B0493000350E02403FD7F0402096A0F
:100DB100900084E024FD600B14601914601F14601E
:100DC10045806D90018CE090031CF090018DE090C6
:100DD100031B805890018DE090031D804F90018D81
:100DE100E0FE540790031EF090018CE0FC5401C416
:100DF1003354E0FDEE131313541F4D90031FF0EC19
:100E0100C313A3F0802A90018DE0FE5407900321C3
:100E1100F090018CE0FC5401C43354E0FDEE131357
:100E210013541F4D900322F0ECC313A3F01208B426
:070E31007D087F0602096A3B
:100AC60090018BE0B408004003020B65900AD9F848
:100AD600282873020AF1020B07020B15020B2302E8
:100AE6000B2F020B3A020B46020B5390018CE0903F
:100AF6000318F090018DE0FF900317F01214AF80F9
:100B06005490018DE0FF90031AF01214A5804690D0
:100B1600018DE0FF90031AF0121478803890018C52
:100B2600E0FDA3E0FB7F03802190018DE0FBE4FD67
:100B36007F04801690018CE0FDA3E0FB7F05800A10
:100B460090018CE0FDA3E0FB7F0602119D90018DD4
:100B5600E0900324F07D087F0612096A1208B42289
:100A20009003527407F0900087E0900350F090001C
:100A300083E0FEA3E0FDEDFF900353EEF0A3EFF0A3
:100A4000900325EEF0A3EFF0900350E0C313FF9066
:100A50000354E02FFF900353E03400FE900325E0A1
:100A6000FCA3E0FDC39FEC9E5052900352E0248112
:100A7000F582E43400F583E090034EF0900352E0F9
:100A80002482F582E43400F583E090034FF0EC70AB
:100A900014ED14701090034FE0FF1214A590034F53
:100AA000E0900345F0900352E02402F0900326E02A
:100AB00004F07094900325E004F0808C7D087F1092
:060AC00012067C0208B4DE
:1005A4009003527407F090018EE0900350F0900194
:1005B4008AE0FEA3E0FDEDFF900353EEF0A3EFF01D
:1005C400900325EEF0A3EFF0900350E0C313FF90E7
:1005D4000354E02FFF900353E03400FE900325E022
:1005E400FCA3E0FDC39FEC9E4003020675900352FA
:1005F400E02488F582E43401F583E090034EF09022
:100604000352E02489F582E43401F583E090034F3A
:10061400F0EC7045ED14601D1460282402703A90CB
:10062400018CE0900318F090018DE0FF900317F027
:100634001214AF801A90018DE0FF90031AF0121487
:10064400A5800C90018DE0FF90031AF01214787DC0
:10065400087F0612096A1208B4900352E02402F0DB
:10066400900326E004F07006900325E004F00205F0
:08067400CC7D087F1002096A29
:05067C00900327EDF0E2
:10068100EF24FC600F24FE604F24F66064240D60AB
:100691000302072C7B017A007901900327E0FD1208
:1006A100100E900328EEF0A3EFF0900328E0FEA3D4
:1006B100E0FD900327E0FC2402F582E43400F58399
:1006C100EDF0EEFF74012CF582E43400F583EFF0D8
:1006D100900327E02402804F78017C007D017B019B
:1006E1007A0079817E007F0812016E900327E080F5
:1006F1003678017C007D017B017A0079817E007F63
:100701000612016E7A00790112100A900328EEF0A8
:10071100A3EFF0900328E0FEA3E0900008F0EE9034
:100721000007F0900327E0900101F0D2847F027E60
:0E0731000012132A4384027F017E0002132A65
:05096A00900327EDF0F1
:10096F00EF24FC600F24FE604F24F66064240D60BA
:10097F0003020A177B017A017908900327E0FD1221
:10098F00100E900328EEF0A3EFF0900328E0FCA3E5
:10099F00E0FDECFF900327E0FE2409F582E434012B
:1009AF00F583EFF074082EF582E43401F583EDF052
:1009BF00900327E02402804C78087C017D017B01A5
:1009CF007A0179887E007F0812016E900327E080FC
:1009DF003378087C017D017B017A0179887E007F65
:1009EF000612016E7A01790812100A900328EEF0B0
:1009FF00A3EFF0900328E0FEA3E090010EF0EEF0DD
:100A0F00900327E0900208F0D2997F017E00021335
:010A1F002AAC
:04100A007B017D06E3
:05100E00900336EDF037
:1010130074FFA3F0A3F0120194FF900337E0F0A351
:10102300E06FF0E4FD900337E0FEA3E0FF30E0194A
:10103300EEC313FEEF13FFEE64A0FEEF6401FF9017
:101043000337EEF0A3EFF0800B900337E0C313F008
:10105300A3E013F00DEDB408CC740129F9E43AFAD6
:0E106300900336E014F070AEA3E0FEA3E0FFB1
:01107100225C
:10148800209706E4900312F0229003127401F022D0
:10073F0090032574EBF0A37410F0E4A3F0A3F0A3DF
:10074F00F0A37404F0A37408F090031CE090032C42
:10075F00F090031BE090032DF0E4A3F090031DE055
:10076F0090032FF0900320E025E0FF90031FE0FEA1
:10077F00C41354074F900330F0EE33333354F8FF64
:10078F0090031EE04F900331F0900323E025E0FF2C
:10079F00900322E0FEC41354074F900332F0EE3360
:1007AF00333354F8FF900321E04F900333F07B0174
:1007BF007A0379257D0F12100EAC06EC900334F0FE
:1007CF00A3EFF078017C007D017A0379257E007F0D
:1007DF001112016E9001017411F0D2847F027E001C
:0D07EF0012132A4384027F017E0002132AA8
:10119D0090032574EBF0A37406F0E4A3F0A3EFF035
:1011AD00A3EDF0A3EBF07B017A0379257D061210F8
:1011BD000EAC06EC90032BF0A3EFF078017C007DD4
:1011CD00017A0379257E007F0812016E900101746A
:1011DD0008F0D2847F027E0012132A4384027F011D
:0511ED007E0002132A40
:03000000020C9A55
:0C0C9A00787FE4F6D8FD758109020CE1BA
:10009E00E709F608DFFA8046E709F208DFFA803E44
:1000AE0088828C83E709F0A3DFFA8032E309F60831
:1000BE00DFFA8078E309F208DFFA807088828C8399
:1000CE00E309F0A3DFFA806489828A83E0A3F6084D
:1000DE00DFFA805889828A83E0A3F208DFFA804C27
:1000EE0080D280FA80C680D4806980F280338010FE
:1000FE0080A680EA809A80A880DA80E280CA803367
:10010E0089828A83ECFAE493A3C8C582C8CCC583DE
:10011E00CCF0A3C8C582C8CCC583CCDFE9DEE780AE
:10012E000D89828A83E493A3F608DFF9ECFAA9F02D
:10013E00EDFB2289828A83ECFAE0A3C8C582C8CC83
:10014E00C583CCF0A3C8C582C8CCC583CCDFEADE9C
:10015E00E880DB89828A83E493A3F208DFF980CCFE
:10016E0088F0EF60010E4E60C388F0ED2402B404F7
:10017E000050B9F582EB2402B4040050AF2323459E
:06018E0082239000EE73D5
:10019400BB010689828A83E0225002E722BBFE0269
:0901A400E32289828A83E493229C
:1001AD00BC000BBE0029EF8DF084FFADF022E4CC36
:1001BD00F875F008EF2FFFEE33FEEC33FCEE9DECFF
:1001CD00984005FCEE9DFE0FD5F0E9E4CEFD22ED45
:1001DD00F8F5F0EE8420D21CFEADF075F008EF2F8F
:1001ED00FFED33FD4007985006D5F0F222C398FD80
:0501FD000FD5F0EA221D
:10020200BB0110E58229F582E5833AF583E0F5F03A
:10021200A3E0225009E92582F886F008E622BBFE17
:100222000AE92582F8E2F5F008E222E5832AF5835D
:08023200E993F5F0A3E9932222
:100CA6000212B4E493A3F8E493A34003F68001F29E
:100CB60008DFF48029E493A3F85407240CC8C3334F
:100CC600C4540F4420C8834004F456800146F6DF1E
:100CD600E4800B010204081020408090049EE47E0C
:100CE600019360BCA3FF543F30E509541FFEE49313
:100CF600A360010ECF54C025E060A840B8E493A3DA
:100D0600FAE493A3F8E493A3C8C582C8CAC583CA04
:100D1600F0A3C8C582C8CAC583CADFE9DEE780BEBC
:0105A3000057
:00000001FF
