:10132900D3EF9400EE9400401600000075080B7589
:0F13390009BED509FDD508FAEF1F70E41E80E14B
:011348002282
:10000E00D3EF9400EE9400400A000000EF1F70F052
:04001E001E80ED2231
:1013C10043BC807F0A7E0012132953DEFC43DE0CEE
:0A13D10053BCDF53A8DF43DE2022E7
:10130800E4FDFC53BCF0EF444042BCE5BC30E5FBD7
:1013180053BCDF53BCBFAFBDEFADBEFCEDAE04FFA9
:0113280022A2
:0D147D00E4F5C7F5C5F5C675C380F5C422BA
:1013880075C78075F50C75C5038FC4EEF5C375C6B2
:0E1398005A75C6A57F0A7E0012132902147D25
:1012E60075C78075F50C75C5028FC4EEF5C3AF05DD
:1012F6008FC275C65A75C6A57F0A7E0012132902CB
:02130600147D54
:1013490075C78075F50C75C5018FC4EEF5C375C6F3
:101359005A75C6A57F0A7E00121329AFC202147DF1
:10136900759418E4F593F5927591F875960EF595BF
:0F13790075B2C2F5B175B48EF5B3F5CAF5C922D8
:1012B80043BA801213691213DB12140D1213C112F0
:1012C80014241213F412143A12120A12144DD2AF43
:0E12D8001211C2120EFE120F6C12128480F55B
:10120A0043BA8090FEB6E0F090FEEDE4F090FEEA7C
:10121A007470F090FEED7401F090FEF27404F0A385
:10122A007451F090FEF0E4F0A37431F090FEB5E052
:10123A004410F090FEFD7480F090FEE0E04401F06E
:01124A002281
:10143A00438E805389F0758ACD758CD4C28DD28C37
:03144A00D2A92202
:10144D0053D1FDE4F5D575D4DC43D10843AF20224B
:1013DB0053A23F759850438E01438E0475D7E87521
:0913EB00D6FF438E1075A81022F4
:1014240075841043844043D12075D3E875D2FF43BB
:06143400D18043AF10223D
:1013F400E4900000F0900081F0900101F0F0A3F07F
:09140400A3F0A3F0A3F0C28422BE
:10140D00E4900107F0900188F0900208F0F0A3F04D
:07141D00A3F0A3F0A3F022ED
:03009300020E0852
:100E0800C0E0C083C082C0D075D000C007E5843080
:100E1800E12A5384FD900101E0601AA3E0FF04F089
:100E280074012FF582E43400F583E0F58590010123
:100E3800E014F08007900102E4F0C284E58430E019
:100E4800335384FE900000E07021900105E0D394B4
:100E5800804002E4F0900105E02481F582E434004A
:100E6800F583E585F0900105E004F0900103E4F0D6
:0F0E7800A37405F0D007D0D0D082D083D0E03261
:03002300020E8743
:100E8700C0E0C083C082C0D075D000C007309927AA
:100E9700C299900208E0601AA3E0FF04F074082FDB
:100EA700F582E43401F583E0F599900208E014F047
:100EB7008005900209E4F0309832C298900107E06B
:100EC700702190020CE0D394804002E4F090020C71
:100ED700E02488F582E43401F583E599F090020C6B
:100EE700E004F090020AE4F0A37405F0D007D0D034
:070EF700D082D083D0E0326D
:03000B00020026CA
:10002600C0E0C083C082C0D0900103E07002A3E0AC
:100036006024900104E024FFF0900103E034FFF017
:10004600E07002A3E0700F900105E0D39400400633
:100056009000007401F090020AE07002A3E06024B0
:1000660090020BE024FFF090020AE034FFF0E0700B
:1000760002A3E0700F90020CE0D3940040069001BA
:0D008600077401F0D0D0D082D083D0E032DA
:1013A600D2907F027E0012000EC2907F197E00123C
:0B13B6001329D2907F1E7E0002000E63
:10104200E490032AF0900329F03090FD7F287E007F
:1010520012000E30901F2090FD90032AE0FF9003B3
:1010620029E0FEC374079EFEF87401088002C333B0
:10107200D8FC4F801B90032AE0FF900329E0FEC3B7
:1010820074079EFEF87401088002C333D8FCF45F33
:1010920090032AF0900329E004F0E0C3940840A9E9
:0510A20090032AE0FFAD
:0110A7002226
:1010A8001213A620905D3090FD2090FD1210429002
:1010B8000325EFF0121042900326EFF01210429031
:1010C8000327EFF0121042900328EFF0121042D2DB
:1010D80090900326E0FD900325E0F92DFDE433FC14
:1010E800900327E0FE7A002DFDEA3CFCA3E02DFDED
:1010F800EA3CFCEFB5050CEAB50408900212EEF0E4
:03110800A3E9F068
:01110B0022C1
:1011C2007F0F7E00121349EFF4703A90031704F078
:1011D200A3743CF0A37401F0A37403F0A37401F0B0
:1011E200A3743CF0A37401F0A3F0A3740AF0A374F7
:1011F20014F0A37402F0A3740FF0A37419F0A37493
:0812020032F01208840207CC4F
:10088400E4FFFE121388900317E0FDE4FFFE12124A
:10089400E6900318E0FD7F017E001212E690031932
:1008A400E0FD7F027E001212E690031AE0FD7F0352
:1008B4007E001212E690031BE0FD7F047E001212FC
:1008C400E690031CE0FD7F057E001212E690031DF6
:1008D400E0FD7F067E001212E690031EE0FD7F0716
:1008E4007E001212E690031FE0FD7F087E001212C4
:1008F400E6900320E0FD7F097E001212E6900321BA
:10090400E0FD7F0A7E001212E6900322E0FD7F0BD9
:100914007E001212E6900323E0FD7F0C7E0012128B
:10092400E6900324E0FD7F0D7E001212E67D587FE1
:060934000F7E000212E636
:1007CC00E4FFFE121349900317EFF07F017E001235
:1007DC001349900318EFF0900317E0FF1214947F65
:1007EC00027E00121349900319EFF012148A7F0352
:1007FC007E0012134990031AEFF012145D7F047EF1
:10080C000012134990031BEFF07F057E0012134971
:10081C0090031CEFF07F067E0012134990031DEF2E
:10082C00F07F077E0012134990031EEFF07F087EC5
:10083C000012134990031FEFF07F097E0012134939
:10084C00900320EFF07F0A7E00121349900321EFF2
:10085C00F07F0B7E00121349900322EFF07F0C7E89
:10086C0000121349900323EFF07F0D7E0012134901
:08087C00900324EFF002070FC6
:1003930060FC021403D503FA04200446046D04959B
:1003A30004BE04E70510053A0565059005BB05E79E
:1003B3000613063F066C069906C606F30720074D8B
:1003C300077A07A707D40800082D0859088508B13C
:1003D30008DC09070931095B098409AD09D609FD60
:1003E3000A240A4B0A710A960ABB0ADE0B020B2483
:1003F3000B460B670B870BA70BC60BE40C020C1EFB
:100403000C3A0C560C700C8A0CA40CBC0CD40CECDF
:100413000D020D190D2E0D430D570D6B0D7E0D9015
:100423000DA20DB40DC50DD50DE50DF50E040E127F
:100433000E200E2E0E3B0E480E550E610E6D0E78DD
:100443000E830E8D0E970EA10EAB0EB40EBD0EC60F
:100453000ECF0ED70EDF0EE70EEF0EF60EFD0F04D6
:100463000F0B0F110F170F1D0F230F290F2F0F3511
:100473000F3A0F3F0F440F490F4E0F530F580F5CA6
:100483000F600F650F690F6D0F710F740F780F7C7D
:0E0CF600900329EBF0A3EAF0A3E9F0A3EDF0E0
:100D0400E4900330F0A3F090032FF090032CE01450
:100D1400FF90032FE0FEC39F505A900329E0FBA3EA
:100D2400E0FAA3E0F975F002EEA4F58285F08312EF
:100D34000202FF90032DE0FCA3E0FDC39FEC95F0BD
:100D4400402AA3E02401FFE433FEEF25E0FFEE3365
:100D5400FE8F828E83120202FFC3ED9FEC95F0504A
:100D64000B90032FE0FFA3E4F0A3EFF090032FE038
:0C0D740004F08097900330E0FEA3E0FF45
:010D80002250
:05110C00900325EFF047
:10111100E4900327F0A3F0900326F0900325E0FF6D
:10112100121308900328E02FF0900327E03EF0907F
:101131000326E004F0E0C3940A40E0900327E0FEB8
:10114100A3E0FF7C007D0A1201AD900327EEF0A31E
:10115100EFF07B017A027914900327E0FFA3E0907E
:0C116100032DCFF0A3EFF07D7E020CF612
:0A148A00EFB40103C2A322D2A32293
:10145D00EF75F0B8A4FF90FEF9E5F0F0A3EFF022E0
:0A149400EFB40103C2C122D2C1224D
:10128400900211E0B4012C7F0412110C90020DEFB6
:10129400F01210A8900210E0FF90020DE0C39F40EE
:1012A40007E490033FF0800690033F7401F0E4905C
:0412B4000211F02211
:050493004203550000CA
:03009B0002124B03
:06124B00C0E0C083C08278
:10125100900211E07026900356E004F070069003AE
:1012610055E004F0900355E07004A3E06464700C51
:0C12710090021104F0900355E4F0A3F08B
:07127D00D082D083D0E032E3
:100EFE00900000E064017065F07B017A00798190CA
:100F0E000105E024FEFD120FDEAD07AC06900105D3
:100F1E00E0FB247FF582E43400F583E0FE74802B41
:100F2E00F582E43400F583E0FBEBFFE4900105F07D
:100F3E00EDB50729ECB50625900081E0B4EB1EA3B4
:100F4E00E024FC600F24FE600E24F6600D240D706C
:0D0F5E000C020B36020BD0020D811209F0BF
:010F6B002263
:100F6C00900107E064017065F07B017A017988904B
:100F7C00020CE024FEFD120FDEAD07AC0690020C55
:100F8C00E0FB2487F582E43401F583E0FE74862BC4
:100F9C00F582E43401F583E0FBEBFFE490020CF006
:100FAC00EDB50729ECB50625900188E0B4DC1EA34D
:100FBC00E024FC600F24FE600E24F6600D240D70FE
:0D0FCC000C02023A020499020A9612057402
:010FD90022F5
:100B36009003517403F0900085A3E025E0900350E4
:100B4600F0900083E0FEA3E0FDEDFF900353EEF08E
:100B5600A3EFF090000174EBF0A37403F090035040
:100B6600E0900003F0900350E0F9C313FD900354A6
:100B7600E02DFD900353E03400FCC3EF9DEE9C5046
:100B860040E490034FF090034EF090034EE0FD904A
:100B96000351E0FC04F074012CF582E43400F58383
:100BA600EDF090034FE0FD900351E0FC04F074017A
:100BB6002CF582E43400F583EDF00FBF00010E80C2
:0A0BC600A4E92403FD7F0302064C9E
:10023A009003517403F090018CA3E025E0900350E1
:10024A00F090018AE0FEA3E0FDEDFF900353EEF08B
:10025A00A3EFF090010874DCF0A37403F09003504C
:10026A00E090010AF0AB07AA06900350E0F9C31325
:10027A00FF900354E02FFF900353E03400FEC3EBDA
:10028A009FEA9E400302038AE490034FF090034ED4
:10029A00F0EA6003020352EBB4080040030203527F
:1002AA009002B1F82828730202C90202D60202E0BB
:1002BA000202EA0202F70203010203220203459044
:1002CA000318E090034EF09003178077E490034EF2
:1002DA00F0900319806DE490034EF090031A806346
:1002EA0090031CE090034EF090031B8056E49003A9
:1002FA004EF090031D804C900320E025E0FF900310
:10030A001FE0FEC41354074F90034EF0EE3333330D
:10031A0054F8FF90031E801F900323E025E0FF900E
:10032A000322E0FEC41354074F90034EF0EE33331A
:10033A003354F8FF900321E04F8009E490034EF014
:10034A00900324E090034FF090034EE0FF90035196
:10035A00E0FE04F074082EF582E43401F583EFF030
:10036A0090034FE0FF900351E0FE04F074082EF56D
:10037A0082E43401F583EFF00BBB00010A02027339
:09038A00E92403FD7F0302093A96
:100BD0009003517403F0900085A3E025E09003504A
:100BE000F0900083E0FEA3E0FDEDFF900353EEF0F4
:100BF000A3EFF090000174EBF0A37404F0900350A5
:100C0000E0900003F0900350E0F9C313FD9003540B
:100C1000E02DFD900353E03400FCC3EF9DEE9C50AB
:100C200040E490034FF090034EF090034EE0FD90AF
:100C30000351E0FC04F074012CF582E43400F583E8
:100C4000EDF090034FE0FD900351E0FC04F07401DF
:100C50002CF582E43400F583EDF00FBF00010E8027
:0A0C6000A4E92403FD7F0402064C02
:100499009003517403F090018CA3E025E090035080
:1004A900F090018AE0FEA3E0FDEDFF900353EEF02A
:1004B900A3EFF090010874DCF0A37404F0900350EA
:1004C900E090010AF0900325EEF0A3EFF0900350BD
:1004D900E0C313FF900354E02FFF900353E034006F
:1004E900FE900325E0FCA3E0FDC39FEC9E5070E461
:1004F90090034FF090034EF0EC7020ED14600C0463
:100509007019E490034EF0A3F0801012146DE4907A
:10051900034EF0900312E090034FF090034EE0FF7A
:10052900900351E0FE04F074082EF582E43401F5DD
:1005390083EFF090034FE0FF900351E0FE04F07465
:10054900082EF582E43401F583EFF0900326E004E8
:10055900F060030204D6900325E004F00204D6906B
:0B0569000350E02403FD7F0402093A68
:100D8100900084E024FD600B14601914601F14604E
:100D910045806D90018CE090031CF090018DE090F6
:100DA100031B805890018DE090031D804F90018DB1
:100DB100E0FE540790031EF090018CE0FC5401C446
:100DC1003354E0FDEE131313541F4D90031FF0EC49
:100DD100C313A3F0802A90018DE0FE5407900321F4
:100DE100F090018CE0FC5401C43354E0FDEE131388
:100DF10013541F4D900322F0ECC313A3F012088487
:070E01007D087F0602093A9B
:100A960090018BE0B408004003020B35900AA9F8D8
:100AA600282873020AC1020AD7020AE5020AF302DB
:100AB6000AFF020B0A020B16020B2390018CE09030
:100AC6000318F090018DE0FF900317F01214948044
:100AD6005490018DE0FF90031AF012148A8046901C
:100AE600018DE0FF90031AF012145D803890018C9E
:100AF600E0FDA3E0FB7F03802190018DE0FBE4FD98
:100B06007F04801690018CE0FDA3E0FB7F05800A40
:100B160090018CE0FDA3E0FB7F0602116D90018D34
:100B2600E0900324F07D087F0612093A1208842219
:1009F0009003527407F0900087E0900350F090004D
:100A000083E0FEA3E0FDEDFF900353EEF0A3EFF0D3
:100A1000900325EEF0A3EFF0900350E0C313FF9096
:100A20000354E02FFF900353E03400FE900325E0D1
:100A3000FCA3E0FDC39FEC9E5052900352E0248142
:100A4000F582E43400F583E090034EF0900352E029
:100A50002482F582E43400F583E090034FF0EC70DB
:100A600014ED14701090034FE0FF12148A90034F9E
:100A7000E0900345F0900352E02402F0900326E05A
:100A800004F07094900325E004F0808C7D087F10C2
:060A900012064C0208846E
:100574009003527407F090018EE0900350F09001C4
:100584008AE0FEA3E0FDEDFF900353EEF0A3EFF04D
:10059400900325EEF0A3EFF0900350E0C313FF9017
:1005A4000354E02FFF900353E03400FE900325E052
:1005B400FCA3E0FDC39FEC9E40030206459003525A
:1005C400E02488F582E43401F583E090034EF09052
:1005D4000352E02489F582E43401F583E090034F6B
:1005E400F0EC7045ED14601D1460282402703A90FC
:1005F400018CE0900318F090018DE0FF900317F058
:10060400121494801A90018DE0FF90031AF01214D2
:100614008A800C90018DE0FF90031AF012145D7D26
:10062400087F0612093A120884900352E02402F06B
:10063400900326E004F07006900325E004F0020520
:080644009C7D087F1002093AB9
:05064C00900327EDF012
:10065100EF24FC600F24FE604F24F66064240D60DB
:10066100030206FC7B017A007901900327E0FD1269
:100671000FDE900328EEF0A3EFF0900328E0FEA335
:10068100E0FD900327E0FC2402F582E43400F583C9
:10069100EDF0EEFF74012CF582E43400F583EFF008
:1006A100900327E02402804F78017C007D017B01CB
:1006B1007A0079817E007F0812016E900327E08025
:1006C1003678017C007D017B017A0079817E007F93
:1006D1000612016E7A007901120FDA900328EEF00A
:1006E100A3EFF0900328E0FEA3E0900008F0EE9065
:1006F1000007F0900327E0900101F0D2847F027E91
:0E070100001213294384027F017E0002132997
:05093A00900327EDF021
:10093F00EF24FC600F24FE604F24F66064240D60EA
:10094F00030209E77B017A017908900327E0FD1282
:10095F000FDE900328EEF0A3EFF0900328E0FCA346
:10096F00E0FDECFF900327E0FE2409F582E434015B
:10097F00F583EFF074082EF582E43401F583EDF082
:10098F00900327E02402804C78087C017D017B01D5
:10099F007A0179887E007F0812016E900327E0802C
:1009AF003378087C017D017B017A0179887E007F95
:1009BF000612016E7A017908120FDA900328EEF011
:1009CF00A3EFF0900328E0FEA3E090010EF0EEF00D
:1009DF00900327E0900208F0D2997F017E00021366
:0109EF0029DE
:040FDA007B017D0614
:050FDE00900336EDF068
:100FE30074FFA3F0A3F0120194FF900337E0F0A382
:100FF300E06FF0E4FD900337E0FEA3E0FF30E0197B
:10100300EEC313FEEF13FFEE64A0FEEF6401FF9047
:101013000337EEF0A3EFF0800B900337E0C313F038
:10102300A3E013F00DEDB408CC740129F9E43AFA06
:0E103300900336E014F070AEA3E0FEA3E0FFE1
:01104100228C
:10146D00209706E4900312F0229003127401F022EB
:10070F0090032574EBF0A37410F0E4A3F0A3F0A30F
:10071F00F0A37404F0A37408F090031CE090032C72
:10072F00F090031BE090032DF0E4A3F090031DE085
:10073F0090032FF0900320E025E0FF90031FE0FED1
:10074F00C41354074F900330F0EE33333354F8FF94
:10075F0090031EE04F900331F0900323E025E0FF5C
:10076F00900322E0FEC41354074F900332F0EE3390
:10077F00333354F8FF900321E04F900333F07B01A4
:10078F007A0379257D0F120FDEAC06EC900334F05F
:10079F00A3EFF078017C007D017A0379257E007F3D
:1007AF001112016E9001017411F0D2847F027E004C
:0D07BF001213294384027F017E00021329DA
:10116D0090032574EBF0A37406F0E4A3F0A3EFF065
:10117D00A3EDF0A3EBF07B017A0379257D06120F29
:10118D00DEAC06EC90032BF0A3EFF078017C007D34
:10119D00017A0379257E007F0812016E900101749A
:1011AD0008F0D2847F027E001213294384027F014E
:0511BD007E0002132971
:03000000020C6A85
:0C0C6A00787FE4F6D8FD758109020CB11A
:10009E00E709F608DFFA8046E709F208DFFA803E44
:1000AE0088828C83E709F0A3DFFA8032E309F60831
:1000BE00DFFA8078E309F208DFFA807088828C8399
:1000CE00E309F0A3DFFA806489828A83E0A3F6084D
:1000DE00DFFA805889828A83E0A3F208DFFA804C27
:1000EE0080D280FA80C680D4806980F280338010FE
:1000FE0080A680EA809A80A880DA80E280CA803367
:10010E0089828A83ECFAE493A3C8C582C8CCC583DE
:10011E00CCF0A3C8C582C8CCC583CCDFE9DEE780AE
:10012E000D89828A83E493A3F608DFF9ECFAA9F02D
:10013E00EDFB2289828A83ECFAE0A3C8C582C8CC83
:10014E00C583CCF0A3C8C582C8CCC583CCDFEADE9C
:10015E00E880DB89828A83E493A3F208DFF980CCFE
:10016E0088F0EF60010E4E60C388F0ED2402B404F7
:10017E000050B9F582EB2402B4040050AF2323459E
:06018E0082239000EE73D5
:10019400BB010689828A83E0225002E722BBFE0269
:0901A400E32289828A83E493229C
:1001AD00BC000BBE0029EF8DF084FFADF022E4CC36
:1001BD00F875F008EF2FFFEE33FEEC33FCEE9DECFF
:1001CD00984005FCEE9DFE0FD5F0E9E4CEFD22ED45
:1001DD00F8F5F0EE8420D21CFEADF075F008EF2F8F
:1001ED00FFED33FD4007985006D5F0F222C398FD80
:0501FD000FD5F0EA221D
:10020200BB0110E58229F582E5833AF583E0F5F03A
:10021200A3E0225009E92582F886F008E622BBFE17
:100222000AE92582F8E2F5F008E222E5832AF5835D
:08023200E993F5F0A3E9932222
:100C76000212B8E493A3F8E493A34003F68001F2CA
:100C860008DFF48029E493A3F85407240CC8C3337F
:100C9600C4540F4420C8834004F456800146F6DF4E
:100CA600E4800B0102040810204080900393E47E48
:100CB600019360BCA3FF543F30E509541FFEE49343
:100CC600A360010ECF54C025E060A840B8E493A30A
:100CD600FAE493A3F8E493A3C8C582C8CAC583CA35
:100CE600F0A3C8C582C8CAC583CADFE9DEE780BEED
:010498000063
:00000001FF
