:100ED700D3EF9400EE9400401600000075080B75E0
:0F0EE70009BED509FDD508FAEF1F70E41E80E1A2
:010EF60022D9
:10000E00D3EF9400EE9400400A000000EF1F70F052
:04001E001E80ED2231
:100F6F0043BC807F0A7E00120ED753DEFC43DE0C9B
:0A0F7F0053BCDF53A8DF43DE20223D
:100EB600E4FDFC53BCF0EF444042BCE5BC30E5FB2E
:100EC60053BCDF53BCBFAFBDEFADBEFCEDAE04FF00
:010ED60022F9
:0D105900E4F5C7F5C5F5C675C380F5C422E2
:100F360075C78075F50C75C5038FC4EEF5C375C608
:0E0F46005A75C6A57F0A7E00120ED7021059FA
:100E940075C78075F50C75C5028FC4EEF5C3AF0533
:100EA4008FC275C65A75C6A57F0A7E00120ED70278
:020EB4001059D3
:100EF70075C78075F50C75C5018FC4EEF5C375C64A
:100F07005A75C6A57F0A7E00120ED7AFC2021059C6
:100F1700759418E4F593F5927591F875960EF59515
:0F0F270075B2C2F5B175B48EF5B3F5CAF5C9222E
:100E050043BA80120F17120F89120FBB120F6F1200
:100E15000FD2120FA2120FE8120D8B12100CD2AFC7
:100E2500120FFB90033B7403F0A37401F0120B182F
:080E3500120B86120E3D80F540
:100D8B0043BA8090FEB6E0F090FEEDE4F090FEEA00
:100D9B007470F090FEED7401F090FEF27404F0A309
:100DAB007451F090FEF0E4F0A37431F090FEB5E0D6
:100DBB004410F090FEFD7480F090FEE0E04401F0F2
:010DCB002205
:100FE800438E805389F0758ACD758CD4C28DD28C8E
:030FF800D2A92259
:10100C0053D1FDE4F5D575D4DC43D10843AF202290
:100F890053A23F759850438E01438E0475D7E87577
:090F9900D6FF438E1075A810224A
:100FD20075841043844043D12075D3E875D2FF4312
:060FE200D18043AF102294
:100FA200E4900000F0900081F0900101F0F0A3F0D5
:090FB200A3F0A3F0A3F0C2842215
:100FBB00E4900107F0900188F0900208F0F0A3F0A4
:070FCB00A3F0A3F0A3F02244
:03009300020A223C
:100A2200C0E0C083C082C0D075D000C007E584306A
:100A3200E12A5384FD900101E0601AA3E0FF04F073
:100A420074012FF582E43400F583E0F5859001010D
:100A5200E014F08007900102E4F0C284E58430E003
:100A6200335384FE900000E07021900105E0D3949E
:100A7200804002E4F0900105E02481F582E4340034
:100A8200F583E585F0900105E004F0900103E4F0C0
:0F0A9200A37405F0D007D0D0D082D083D0E0324B
:03002300020AA12D
:100AA100C0E0C083C082C0D075D000C00730992794
:100AB100C299900208E0601AA3E0FF04F074082FC5
:100AC100F582E43401F583E0F599900208E014F031
:100AD1008005900209E4F0309832C298900107E055
:100AE100702190020CE0D394804002E4F090020C5B
:100AF100E02488F582E43401F583E599F090020C55
:100B0100E004F090020AE4F0A37405F0D007D0D01D
:070B1100D082D083D0E03256
:03000B00020026CA
:10002600C0E0C083C082C0D0900103E07002A3E0AC
:100036006024900104E024FFF0900103E034FFF017
:10004600E07002A3E0700F900105E0D39400400633
:100056009000007401F090020AE07002A3E06024B0
:1000660090020BE024FFF090020AE034FFF0E0700B
:1000760002A3E0700F90020CE0D3940040069001BA
:0D008600077401F0D0D0D082D083D0E032DA
:100F5400D2907F027E0012000EC2907F197E001292
:0B0F64000ED7D2907F1E7E0002000E10
:100C6000E4900315F0900314F03090FD7F287E008F
:100C700012000E30901F2090FD900315E0FF9003AE
:100C800014E0FEC374079EFEF87401088002C333AB
:100C9000D8FC4F801B900315E0FF900314E0FEC3C7
:100CA00074079EFEF87401088002C333D8FCF45F19
:100CB000900315F0900314E004F0E0C3940840A9F9
:050CC000900315E0FFA8
:010CC500220C
:100CC600120F5420905D3090FD2090FD120C609024
:100CD6000310EFF0120C60900311EFF0120C60900D
:100CE6000312EFF0120C60900313EFF0120C60D2B7
:100CF60090900311E0FD900310E0F92DFDE433FC24
:100D0600900312E0FE7A002DFDEA3CFCA3E02DFDE7
:100D1600EA3CFCEFB5050CEAB50408900212EEF0C9
:030D2600A3E9F04E
:010D290022A7
:100FFB007F107E00120EF7EFB4FF0312103C0200BD
:01100B0003E1
:0F103C00E4FFFE120F367D587F107E00020E94E7
:0100030022DA
:10023A0060FC021403D503FA04200446046D0495F5
:10024A0004BE04E70510053A0565059005BB05E7F8
:10025A000613063F066C069906C606F30720074DE5
:10026A00077A07A707D40800082D0859088508B196
:10027A0008DC09070931095B098409AD09D609FDBA
:10028A000A240A4B0A710A960ABB0ADE0B020B24DD
:10029A000B460B670B870BA70BC60BE40C020C1E55
:1002AA000C3A0C560C700C8A0CA40CBC0CD40CEC3A
:1002BA000D020D190D2E0D430D570D6B0D7E0D9070
:1002CA000DA20DB40DC50DD50DE50DF50E040E12DA
:1002DA000E200E2E0E3B0E480E550E610E6D0E7838
:1002EA000E830E8D0E970EA10EAB0EB40EBD0EC66A
:1002FA000ECF0ED70EDF0EE70EEF0EF60EFD0F0431
:10030A000F0B0F110F170F1D0F230F290F2F0F356B
:10031A000F3A0F3F0F440F490F4E0F530F580F5C00
:10032A000F600F650F690F6D0F710F740F780F7CD7
:0E099700900314EBF0A3EAF0A3E9F0A3EDF057
:1009A500E490031BF0A3F090031AF0900317E014F2
:1009B500FF90031AE0FEC39F505A900314E0FBA377
:1009C500E0FAA3E0F975F002EEA4F58285F0831252
:1009D5000202FF900318E0FCA3E0FDC39FEC95F035
:1009E500402AA3E02401FFE433FEEF25E0FFEE33C8
:1009F500FE8F828E83120202FFC3ED9FEC95F050AD
:100A05000B90031AE0FFA3E4F0A3EFF090031AE0C4
:0C0A150004F0809790031BE0FEA3E0FFBC
:010A210022B2
:050D2A00900310EFF042
:100D2F00E4900312F0A3F0900311F0900310E0FF92
:100D3F00120EB6900313E02FF0900312E03EF090E6
:100D4F000311E004F0E0C3940A40E0900312E0FEC8
:100D5F00A3E0FF7C007D0A1201AD900312EEF0A319
:100D6F00EFF07B017A027914900312E0FFA3E09079
:0C0D7F000318CFF0A3EFF07D7E0209976F
:0A106600EFB40103C2A322D2A322BB
:10101C00EF75F0B8A4FF90FEF9E5F0F0A3EFF02225
:100E3D00900211E0B4012C7F04120D2A90020DEFE7
:100E4D00F0120CC6900210E0FF90020DE0C39F401F
:100E5D0007E4900323F080069003237401F0E490DF
:040E6D000211F0225C
:05033A0042033D00003C
:03009B00020DCC87
:060DCC00C0E0C083C082FC
:100DD200900211E0702690033EE004F0700690034A
:100DE2003DE004F090033DE07004A3E06464700C05
:0C0DF20090021104F090033DE4F0A3F027
:070DFE00D082D083D0E03267
:100B1800900000E064017065F07B017A00798190B3
:100B28000105E024FEFD120BFCAD07AC06900105A3
:100B3800E0FB247FF582E43400F583E0FE74802B2B
:100B4800F582E43400F583E0FBEBFFE4900105F067
:100B5800EDB50729ECB50625900081E0B4EB1EA39E
:100B6800E024FC600F24FE600E24F6600D240D7056
:0D0B78000C0207D702087102104B120696FE
:010B8500224D
:100B8600900107E064017065F07B017A0179889035
:100B9600020CE024FEFD120BFCAD07AC0690020C25
:100BA600E0FB2487F582E43401F583E0FE74862BAE
:100BB600F582E43401F583E0FBEBFFE490020CF0F0
:100BC600EDB50729ECB50625900188E0B4DC1EA337
:100BD600E024FC600F24FE600E24F6600D240D70E8
:0D0BE6000C0205DB020441020E7112073CF7
:010BF30022DF
:1007D7009003357403F0900085A3E025E09003347F
:1007E700F0900083E0FEA3E0FDEDFF900337EEF00D
:1007F700A3EFF090000174EBF0A37403F0900334BF
:10080700E0900003F0900334E0F9C313FD90033840
:10081700E02DFD900337E03400FCC3EF9DEE9C50C4
:1008270040E4900333F0900332F0900332E0FD9000
:100837000335E0FC04F074012CF582E43400F58301
:10084700EDF0900333E0FD900335E0FC04F0740114
:100857002CF582E43400F583EDF00FBF00010E8024
:0A086700A4E92403FD7F0302051C31
:1005DB009003357403F090018CA3E025E090033475
:1005EB00F090018AE0FEA3E0FDEDFF900337EEF003
:1005FB00A3EFF090010874DCF0A37403F0900334C4
:10060B00E090010AF0900334E0F9C313FD90033836
:10061B00E02DFD900337E03400FCC3EF9DEE9C50C2
:10062B0061E4900333F0900332F0EE701EEF146030
:10063B000D047017E4900332F090033B8008E490B4
:10064B000332F090033CE0900333F0900332E0FD73
:10065B00900335E0FC04F074082CF582E43401F5CA
:10066B0083EDF0900333E0FD900335E0FC04F07470
:10067B00082CF582E43401F583EDF00FBF00010E79
:0B068B008083E92403FD7F030203408D
:100871009003357403F0900085A3E025E0900334E4
:10088100F0900083E0FEA3E0FDEDFF900337EEF072
:10089100A3EFF090000174EBF0A37404F090033423
:1008A100E0900003F0900334E0F9C313FD900338A6
:1008B100E02DFD900337E03400FCC3EF9DEE9C502A
:1008C10040E4900333F0900332F0900332E0FD9066
:1008D1000335E0FC04F074012CF582E43400F58367
:1008E100EDF0900333E0FD900335E0FC04F074017A
:1008F1002CF582E43400F583EDF00FBF00010E808A
:0A090100A4E92403FD7F0402051C95
:100441009003357403F090018CA3E025E090033410
:10045100F090018AE0FEA3E0FDEDFF900337EEF09E
:10046100A3EFF090010874EBF0A37404F09003344F
:10047100E090010AF0900310EEF0A3EFF090033446
:10048100E0C313FF900338E02FFF900337E03400FF
:10049100FE900310E0FCA3E0FDC39FEC9E5070E4CE
:1004A100900333F0900332F0EC7020ED14600C04F3
:1004B1007019E4900332F0A3F0801012102CE49034
:1004C1000332F0900339E0900333F0900332E0FF00
:1004D100900335E0FE04F074012EF582E43400F55A
:1004E10083EFF0900333E0FF900335E0FE04F074F6
:1004F100012EF582E43400F583EFF0900311E0045E
:10050100F0600302047E900310E004F002047E9088
:0B0511000334E02403FD7F04020340DC
:0E104B00900084E07D087F0612051C02103C18
:100E710090018BE014600D04701290018DE0FF125F
:100E8100101C800890018DE0FF1210667D087F061E
:030E910002034019
:100696009003367407F0900087E0900334F09000E2
:1006A60083E0FEA3E0FDEDFF900337EEF0A3EFF04D
:1006B600900310EEF0A3EFF0900334E0C313FF9025
:1006C6000338E02FFF900337E03400FE900310E07C
:1006D600FCA3E0FDC39FEC9E5052900336E02481BC
:1006E600F582E43400F583E0900332F0900336E0BF
:1006F6002482F582E43400F583E0900333F0EC7055
:1007060014ED147010900333E0FF1210669003335B
:10071600E0900329F0900336E02402F0900311E004
:1007260004F07094900310E004F0808C7D087F1034
:0607360012051C02103C3C
:10073C009003367407F090018EE0900334F0900132
:10074C008AE0FEA3E0FDEDFF900337EEF0A3EFF09F
:10075C00900310EEF0A3EFF0900334E0C313FF907E
:10076C000338E02FFF900337E03400FE900310E0D5
:10077C00FCA3E0FDC39FEC9E504A900336E0248816
:10078C00F582E43401F583E0900332F0900336E017
:10079C002489F582E43401F583E0900333F0EC70A6
:1007AC000CED147008900333E0FF121066900336C2
:1007BC00E02402F0900311E004F0709C900310E030
:0B07CC0004F080947D087F10020340C1
:05051C00900312EDF058
:10052100EF24FC600F24FE604724F6605C240D601C
:10053100030205C8900312120BF4900313EEF0A30B
:10054100EFF0900313E0FEA3E0FD900312E0FC2422
:1005510002F582E43400F583EDF0EEFF74012CF531
:1005610082E43400F583EFF0900312E0240280531B
:1005710078017C007D017B017A0079817E007F0812
:1005810012016E900312E0803A78017C007D017BBC
:10059100017A0079817E007F0612016E7B017A006B
:1005A10079017D06120BFC900313EEF0A3EFF0909E
:1005B1000313E0FEA3E0900008F0EE900007F09036
:1005C1000312E0900101F0D2847F027E00120ED767
:0A05D1004384027F017E00020ED772
:05034000900312EDF036
:10034500EF24FC605A24FE70030203E424F67003D4
:100355000203FD240D60030204387B017A0179084C
:10036500900312E0FD120BFC900313EEF0A3EFF0E7
:10037500900313E0FCA3E0FDECFF900312E0FE24E4
:1003850009F582E43401F583EFF074082EF582E473
:100395003401F583EDF0900312E024020204349059
:1003A5000312120BF4900313EEF0A3EFF090031376
:1003B500E0FEA3E0FD900312E0FC2402F582E434A4
:1003C50000F583EDF0EEFF74012CF582E43400F5C1
:1003D50083EFF0900312E02402900101F08054783D
:1003E500087C017D017B017A0179887E007F0812F6
:1003F500016E900312E0803778087C017D017B0156
:100405007A0179887E007F0612016E7B017A017977
:10041500087D06120BFC900313EEF0A3EFF090039A
:1004250013E0FEA3E090010EF0EEF0900312E090D1
:0C0435000208F0D2997F017E00020ED771
:080BF4007B017A007901E0FDAC
:050BFC00900315EDF06F
:100C010074FFA3F0A3F0120194FF900316E0F0A388
:100C1100E06FF0E4FD900316E0FEA3E0FF30E01981
:100C2100EEC313FEEF13FFEE64A0FEEF6401FF902D
:100C31000316EEF0A3EFF0800B900316E0C313F060
:100C4100A3E013F00DEDB408CC740129F9E43AFAEC
:0E0C5100900315E014F070AEA3E0FEA3E0FFE8
:010C5F002272
:10102C00209706E4900339F0229003397401F022E2
:0300000002090BE7
:0C090B00787FE4F6D8FD758109020952DE
:10009E00E709F608DFFA8046E709F208DFFA803E44
:1000AE0088828C83E709F0A3DFFA8032E309F60831
:1000BE00DFFA8078E309F208DFFA807088828C8399
:1000CE00E309F0A3DFFA806489828A83E0A3F6084D
:1000DE00DFFA805889828A83E0A3F208DFFA804C27
:1000EE0080D280FA80C680D4806980F280338010FE
:1000FE0080A680EA809A80A880DA80E280CA803367
:10010E0089828A83ECFAE493A3C8C582C8CCC583DE
:10011E00CCF0A3C8C582C8CCC583CCDFE9DEE780AE
:10012E000D89828A83E493A3F608DFF9ECFAA9F02D
:10013E00EDFB2289828A83ECFAE0A3C8C582C8CC83
:10014E00C583CCF0A3C8C582C8CCC583CCDFEADE9C
:10015E00E880DB89828A83E493A3F208DFF980CCFE
:10016E0088F0EF60010E4E60C388F0ED2402B404F7
:10017E000050B9F582EB2402B4040050AF2323459E
:06018E0082239000EE73D5
:10019400BB010689828A83E0225002E722BBFE0269
:0901A400E32289828A83E493229C
:1001AD00BC000BBE0029EF8DF084FFADF022E4CC36
:1001BD00F875F008EF2FFFEE33FEEC33FCEE9DECFF
:1001CD00984005FCEE9DFE0FD5F0E9E4CEFD22ED45
:1001DD00F8F5F0EE8420D21CFEADF075F008EF2F8F
:1001ED00FFED33FD4007985006D5F0F222C398FD80
:0501FD000FD5F0EA221D
:10020200BB0110E58229F582E5833AF583E0F5F03A
:10021200A3E0225009E92582F886F008E622BBFE17
:100222000AE92582F8E2F5F008E222E5832AF5835D
:08023200E993F5F0A3E9932222
:10091700020E05E493A3F8E493A34003F68001F2E3
:1009270008DFF48029E493A3F85407240CC8C333E1
:10093700C4540F4420C8834004F456800146F6DFB0
:10094700E4800B010204081020408090023AE47E04
:10095700019360BCA3FF543F30E509541FFEE493A5
:10096700A360010ECF54C025E060A840B8E493A36C
:10097700FAE493A3F8E493A3C8C582C8CAC583CA97
:10098700F0A3C8C582C8CAC583CADFE9DEE780BE4F
:01033F0000BD
:00000001FF
