:0300000002026C8D
:0C026C00787FE4F6D8FD7581090202B32A
:0400030041000001B7
:10044400759418E4F593F5927591F875960EF595F3
:0F04540075B2C2F5B175B48EF5B3F5CAF5C9220C
:10047C0075841043844043D12075D3E875D2FF4373
:06048C00D18043AF1022F5
:1004A800438E805389F0758ACD758CD4C28DD28CD9
:0304B800D2A922A4
:10046300E4900001F0900082F0900102F0F0A3F01C
:09047300A3F0A3F0A3F0C284225F
:0300930002000E5A
:10000E00C0E0C083C082C0D075D000C007E5843088
:10001E00E12A5384FD900102E0601AA3E0FF04F090
:10002E0074022FF582E43400F583E0F58590010229
:10003E00E014F08007900103E4F0C284E58430E020
:10004E00335384FE900001E07021900106E0D394BA
:10005E00804002E4F0900106E02482F582E4340050
:10006E00F583E585F0900106E004F0900104E4F0DC
:0F007E00A37405F0D007D0D0D082D083D0E03269
:03000B000203B736
:1003B700C0E0C083C082C0D0900104E07002A3E017
:1003C7006024900105E024FFF0900104E034FFF081
:1003D700E07002A3E0700F900106E0D3940040069E
:0F03E7009000017401F0D0D0D082D083D0E032EA
:10035C00900001E064017052F07B017A0079829088
:10036C000106E024FEFD1202F8AD07AC0690010672
:10037C00E0FB2480F582E43400F583E0FE74812BED
:10038C00F582E43400F583E0FBEBFFE4900106F02A
:10039C00EDB50716ECB50612900082E0B4EB0BA39A
:0A03AC00E024FA600280031203F659
:0103B6002224
:1003F600900085E024FD600B14600A146009146007
:10040600088014800480028000900000E0FFC3741E
:0E041600019FF024FF92C77D087F060201A51A
:0501A500900108EDF0DF
:1001AA00EF24FC600F24FE604F24F66064240D6087
:1001BA00030202597B017A007902900108E0FD12DC
:1001CA0002F8900109EEF0A3EFF0900109E0FEA316
:1001DA00E0FD900108E0FC2403F582E43400F58395
:1001EA00EDF0EEFF74022CF582E43400F583EFF0B3
:1001FA00900108E02402805378027C007D017B0193
:10020A007A0079827E007F08120166900108E080F8
:10021A003A78027C007D017B017A0079827E007F38
:10022A00061201667B017A0079027D061202F890B5
:10023A000109EEF0A3EFF0900109E0FEA3E09000BF
:10024A0009F0EE900008F0900108E0900102F0D267
:10025A00847F027E001204244384027F017E00020E
:02026A0004246A
:10042400D3EF9400EE9400401600000075080B759D
:0F04340009BED509FDD508FAEF1F70E41E80E15F
:010443002296
:0502F80090010BEDF088
:1002FD0074FFA3F0A3F012018CFF90010CE0F0A3AA
:10030D00E06FF0E4FD90010CE0FEA3E0FF30E0199A
:10031D00EEC313FEEF13FFEE64A0FEEF6401FF903A
:10032D00010CEEF0A3EFF0800B90010CE0C313F085
:10033D00A3E013F00DEDB408CC740129F9E43AFAF9
:0E034D0090010BE014F070AEA3E0FEA3E0FF01
:01035B00227F
:1004920043BA8012044412047C1204631204A8D2E8
:0604A200AF12035C80FBB9
:10027800020492E493A3F8E493A34003F68001F206
:1002880008DFF48029E493A3F85407240CC8C33387
:10029800C4540F4420C8834004F456800146F6DF56
:1002A800E4800B0102040810204080900003E47EE3
:1002B800019360BCA3FF543F30E509541FFEE4934B
:1002C800A360010ECF54C025E060A840B8E493A312
:1002D800FAE493A3F8E493A3C8C582C8CAC583CA3D
:1002E800F0A3C8C582C8CAC583CADFE9DEE780BEF5
:0100070000F8
:10009600E709F608DFFA8046E709F208DFFA803E4C
:1000A60088828C83E709F0A3DFFA8032E309F60839
:1000B600DFFA8078E309F208DFFA807088828C83A1
:1000C600E309F0A3DFFA806489828A83E0A3F60855
:1000D600DFFA805889828A83E0A3F208DFFA804C2F
:1000E60080D280FA80C680D4806980F28033801006
:1000F60080A680EA809A80A880DA80E280CA80336F
:1001060089828A83ECFAE493A3C8C582C8CCC583E6
:10011600CCF0A3C8C582C8CCC583CCDFE9DEE780B6
:100126000D89828A83E493A3F608DFF9ECFAA9F035
:10013600EDFB2289828A83ECFAE0A3C8C582C8CC8B
:10014600C583CCF0A3C8C582C8CCC583CCDFEADEA4
:10015600E880DB89828A83E493A3F208DFF980CC06
:1001660088F0EF60010E4E60C388F0ED2402B404FF
:100176000050B9F582EB2402B4040050AF232345A6
:0601860082239000E673E5
:10018C00BB010689828A83E0225002E722BBFE0271
:09019C00E32289828A83E49322A4
:00000001FF
